:020000040800F2
:10000000900D002075320008D10B0008D30B0008BA
:10001000D70B0008DB0B0008DF0B00080000000016
:10002000000000000000000000000000E30B0008DA
:10003000E50B000800000000E70B0008E90B0008D2
:100040008F3200088F3200088F3200088F3200088C
:100050008F3200088F3200088F3200088F3200087C
:100060008F3200088F3200088F3200088F3200086C
:100070008F3200088F3200088F3200088F3200085C
:100080008F3200088F3200088F3200088F3200084C
:100090008F3200088F3200088F3200088F3200083C
:1000A0008F3200088F3200088F3200088F3200082C
:1000B000113300088F320008A33B00088F3200087C
:1000C0008F3200088F3200088F3200088F3200080C
:1000D0008F320008350B0008933900088F32000872
:1000E0008F3200088F3200088F3200088F320008EC
:1000F0008F3200088F3200088F3200088F320008DC
:100100008F3200088F3200088F3200088F320008CB
:100110008F3200088F3200088F3200088F320008BB
:100120008F3200088F3200088F3200088F320008AB
:1001300000F002F800F0B0F80AA090E8000C824449
:100140008344AAF10107DA4501D100F0A5F8AFF226
:10015000090EBAE80F0013F0010F18BFFB1A43F0A5
:100160000103184700770000207700000A444FF091
:10017000000C10F8013B13F0070408BF10F8014B06
:100180001D1108BF10F8015B641E05D010F8016B4B
:10019000641E01F8016BF9D113F0080F1EBF10F8AF
:1001A000014BAD1C0C1B09D16D1E58BF01F801CBD2
:1001B000FAD505E014F8016B01F8016B6D1EF9D555
:1001C0009142D6D37047000000230024002500266A
:1001D000103A28BF78C1FBD8520728BF30C148BFAA
:1001E0000B6070476E2904F0DB82702904F053869F
:1001F000662906F0F685652906F0F385672906F07D
:10020000F0856129AFF3008003681B0A28BF41F025
:100210008001692904F03681642904F0338175294D
:1002200004F030816F2904F0E185782904F01F86FD
:10023000E92904F07B85E42904F07885F52904F0A8
:100240007585EF2904F0DE85F82904F01E86036821
:10025000DB0928BF41F08001632904F0EA84732997
:1002600004F0EF84E32904F0B586F32904F0BA869C
:10027000002070471FB504F019FE04000020002183
:1002800005F0DEFD401C60600020002105F0C2FD8D
:10029000E0601FBD10B510BD04F03EFF1146FFF732
:1002A000E9FF00F009F804F065FF03B4FFF7F2FF7F
:1002B00003BC00F08DFB00008CB04FF0000A00F092
:1002C00029FA00F091FA00F0AFFA4FF4165000F05E
:1002D0008EFB03F0D9FA03F0C9F803F0E9FD04F04E
:1002E0002AF803F047F9002003F0B1F909E0E9A189
:1002F00008A804F061F8022308AA0021084603F0C8
:10030000DEF903F071FC0028F1D103F0A0F941F609
:100310001F4140F2E73002F0CDFF0A21042003F034
:100320000CFB0446204606F097FB834606F0E4F9F2
:1003300007464FF06632DC4B05F0EAFF054605F054
:1003400095FD8146484606F04FFB84B2204606F0F4
:1003500083FB0546494606F0C4FC8146D34948461E
:1003600006F0C2FB8146484606F022FB05462B46B6
:100370002246CFA104A804F01FF8022304AA0421F6
:10038000002003F09CF984E1CF4800680A2190FB2B
:10039000F1F0CE4908600846006800EB8000CA49C9
:1003A0000968A1EB4000CA49086008460368C748CD
:1003B000C8A1026808A803F0FFFF022308AA194693
:1003C000002003F07CF9C848008800F4004070B1B8
:1003D000C54890F800A00020C44901F80A00C249AD
:1003E00008800223C14A0021084603F068F903F09F
:1003F00003FFBF48006806F07FF905462A460B4612
:10040000BCA1684603F0D8FF02236A4606210020FB
:1004100003F055F9B548007864214843B349497859
:100420000A2202FB0100B14989780844B3490860F7
:1004300008460068B0F5877F64D00BDC6F287FD05A
:1004400003DCA0B15A282AD12AE0B42841D0DE2802
:10045000F9D17FE0A0F24D1000286ED06F286DD04A
:10046000DE286CD0A0F24D100028ECD1E9E000208D
:1004700002F0CAFFA249086008460168A14802F0DC
:1004800059FF054606F0D0FA9F4908600846006803
:1004900006F08EFA05464FF4FA7100F06FFAF7E0B5
:1004A0005A2002F0B1FF9649086008460168954855
:1004B00002F040FF054606F0B7FA93490860084687
:1004C000006806F075FA05464FF4FA7100F056FA26
:1004D000DEE0B42002F098FF894908600846016810
:1004E000884802F027FF054606F09EFA8649086014
:1004F0000846006806F05CFA05464FF4FA7100F011
:100500003DFAC5E04FF4877002F07EFF7C49086039
:10051000084601687B4802F00DFF054606F084FAA4
:10052000794908600846006806F042FA05464FF42B
:10053000FA7100F023FAABE002E010E035E05AE097
:10054000002072490880091D0880091D0880091DC6
:1005500008809DE040F6B83000F019F998E05A485C
:1005600000686B49086018E003F046FE002002F0C6
:100570004BFF6349086008460168624802F0DAFEF2
:10058000054606F051FA604908600846006806F022
:100590000FFA0546002100F0F1F94B4800685C496C
:1005A0000968401A1428DFDC72E04748006858499F
:1005B000086018E003F020FE5A2002F025FF5049A1
:1005C0000860084601684F4802F0B4FE054606F090
:1005D0002BFA4D4908600846006806F0E9F905461F
:1005E000002100F0CBF93848006849490968401AF1
:1005F0001428DFDC4CE0344800684549086018E006
:1006000003F0FAFDB42002F0FFFE3D490860084601
:1006100001683C4802F08EFE054606F005FA3A49AC
:1006200008600846006806F0C3F90546002100F09E
:10063000A5F92548006836490968401A1428DFDC06
:1006400026E0214800683249086019E003F0D4FD33
:100650004FF4877002F0D8FE294908600846016807
:10066000284802F067FE054606F0DEF926490860D4
:100670000846006806F09CF90546002100F07EF966
:100680001148006822490968401A1428DEDC00BFBE
:1006900000BF79E6425420434F4E4E454354204517
:1006A00052524F520000000066664A3F0000C842A6
:1006B000564F4C544147453A20253032642E253060
:1006C0003264205600000000940000202400002026
:1006D0002800002054494D45533A20253033642EDC
:1006E00025642073000000004805002068060020F3
:1006F00060050020484D433A202566003800002060
:1007000030000020000000203400002034040040AD
:100710002C00002010B56FF0040000F0B6FA2E484F
:1007200000682E49B0FBF1F02D49087008460078AA
:1007300000EB4001C1EBC0104FF6FF7101EAC000B1
:100740002849088010BD0146254A12784A434FF0D7
:10075000E0235A6100229A611A46126942F00102AE
:100760001A6100BF4FF0E022106900F001021AB1D7
:1007700000F48032002AF5D04FF0E022126922F016
:1007800001024FF0E0231A6100229A61704701468E
:10079000144A12884A434FF0E0235A6100229A61BA
:1007A0001A46126942F001021A6100BF4FF0E022BE
:1007B000106900F001021AB100F48032002AF5D06D
:1007C0004FF0E022126922F001024FF0E0231A619B
:1007D00000229A61704700006800002000127A0031
:1007E0003C0000203E00002008B501210C2000F054
:1007F000C9FCC020ADF8000018208DF803000320CC
:100800008DF8020069466C4800F080FD0320ADF8C9
:10081000000018208DF8030003208DF802006946BF
:10082000664800F073FD08BD00B587B001210220C5
:1008300000F0B5FC40F2E730ADF814004720ADF809
:1008400010000020ADF81600ADF8120004A95C48B5
:1008500001F080F96020ADF800000120ADF8020041
:100860000020ADF80800ADF806006946544801F0D4
:10087000AEF90821524801F0F9FD0020ADF806005C
:1008800069464F4801F0E5F908214D4801F0F7FDB0
:100890000020ADF806006946494801F027FA082112
:1008A000474801F0F9FD0020ADF8060069464448CC
:1008B00001F067FA0821424801F0F7FD01214048A4
:1008C00001F0A4FD01213E4801F0A0FC07B000BDED
:1008D00070B505460C46002D12DB3A48007858B931
:1008E0000020374934310880091D08800A20FFF7AD
:1008F0004EFF012033490870314934310D8013E037
:100900003048007801280BD100202D49343108806F
:10091000091D08800A20FFF73AFF002029490870C6
:10092000684227493C310880002C12DB26480078B9
:1009300058B9002022493C310880091D08800A204E
:10094000FFF725FF0120204908701D493C310C802C
:1009500013E01D48007801280BD1002018493C31D4
:100960000880091D08800A20FFF711FF00201649A2
:100970000870604212494031088070BD2DE9F04195
:1009800004460F463D1B3E1915F57A7F00DA0F4DE0
:10099000B5F57A7F01DD4FF47A7516F57A7F00DAC6
:1009A0000A4EB6F57A7F01DD4FF47A763146284655
:1009B000FFF78EFFBDE8F08100080140000C014008
:1009C00000040040400000204100002018FCFFFF10
:1009D000014600BF704700BF744A128802F040020F
:1009E000002AF9D0C2B2714B1B1D1A80704710B596
:1009F00086B00446012144F2040000F0C3FB4FF42A
:100A00000070ADF8140003208DF8160018208DF842
:100A1000170005A9664800F079FC4FF48060ADF836
:100A2000140004208DF8170005A9614800F06EFC41
:100A300025208DF8000003208DF801008DF80200BC
:100A400001208DF80300684600F0D5F801940020DD
:100A5000ADF80800ADF80A00ADF80C00ADF81000D4
:100A60000C20ADF80E0001A9504801F0F0FE012263
:100A700040F225514D4801F082FF01214B4801F021
:100A800072FF06B010BD2DE9F04786B0824600BF68
:100A90009AF80410A1F1300005F022FC0646454A00
:100AA000454B05F035FC804689469AF80510A1F1C2
:100AB000300005F015FC0646404A414B05F028FC85
:100AC00042464B46CDE9040105F002FA04460D46C4
:100AD0009AF801103039642201FB02F005F000FCA5
:100AE000CDE904019AF80210303901EB8101480088
:100AF00005F0F6FB06460F469AF80310A1F1300008
:100B000005F0EEFB804622462B4605F0E1F9324621
:100B10003B46CDE9000105F0DBF9CDE90201DDE955
:100B2000042305F0D5F904460D462046294606B0B3
:100B3000BDE8F08770B540F225511C4802F004F87A
:100B4000002832D040F22551184802F027F8174803
:100B500001F07AFFC5B2202D00D130252E2D24D0F2
:100B6000002405E01749601C085C0855601CC4B2ED
:100B7000052CF7DD134885710078682808D11148E5
:100B80008079762804D10F48FFF77DFF0E4A03C213
:100B90000C4800787A2808D10A488079762804D150
:100BA0000848FFF770FF094A03C270BD00380140D2
:100BB000000801409A9999999999B93F7B14AE47D9
:100BC000E17A843F5E0000204800002050000020B1
:100BD000704700BFFEE700BFFEE700BFFEE700BFB3
:100BE000FEE7704770477047704700003149014386
:100BF000314A1160704770B5002100230F22C4787C
:100C000004B32D4C246804F4E064C4F5E064210AC4
:100C1000C1F10403CA40447804FA03F18478144013
:100C200021430901254C0678A155047804F01F05DD
:100C30000124AC4005786D11AD0005F1E025C5F843
:100C4000004109E0047804F01F050124AC401C4D6C
:100C50000678761145F8264070BD1A4A0A400243CC
:100C6000154B1B1F1A60704739B1134A121D1268C9
:100C70000243114B1B1D1A6006E00F4A121D126839
:100C800082430D4B1B1D1A607047042808D14FF09A
:100C9000E021096941F004014FF0E022116107E011
:100CA0004FF0E021096921F004014FF0E0221161C9
:100CB000704700000000FA050CED00E000E400E0E1
:100CC00080E100E080FFFF1F0CB500200190009044
:100CD0006C48006840F480306A49086000BF694889
:100CE000006800F4003000900198401C01900098CA
:100CF00018B90198B0F5A06FF1D16248006800F40E
:100D0000003010B10120009001E000200090009818
:100D1000012843D15C48006840F010005A4908603F
:100D20000846006820F0030008600846006840F0AC
:100D300002000860534840685249486008464068CD
:100D400048600846406840F4806048600846406853
:100D500020F47C1048600846406840F4E810486081
:100D60000846006840F08070086000BF4548006891
:100D700000F000700028F9D04248406820F00300DD
:100D8000404948600846406840F00200486000BFA3
:100D90003C48406800F00C000828F9D10CBD10B5A3
:100DA000FFF792FF10BD10B53648006840F0010013
:100DB0003449086008464068344908403149486071
:100DC00008460068324908402E4908600846006815
:100DD00020F4802008600846406820F4FE00486047
:100DE0004FF41F008860FFF7DAFF4FF000602949D9
:100DF000086010BD10B5002100200022214B5B6867
:100E000003F00C0121B1042906D0082928D107E0FC
:100E1000214B224C236027E01F4B204C236023E012
:100E2000184B5B6803F47010164B5B6803F4803258
:100E3000022303EB904022B9194B4343174C236024
:100E40000DE0104B5B6803F4003323B1144B4343B4
:100E5000124C236003E0104B4343104C236003E02B
:100E60000D4B0E4C236000BF00BF064B5B68C3F305
:100E700003130C4CE15C094B1B68CB40074C23600F
:100E800010BD000000100240002002400000FFF8EA
:100E9000FFFFF6FE08ED00E000127A006800002077
:100EA00000093D006C000020DF48006840F00100B0
:100EB000DD49086008464068DC490840DA49486076
:100EC00008460068DA490840D749086008460068C3
:100ED00020F4802008600846406820F4FE00486046
:100EE0004FF41F0088607047CF49096821F48031B2
:100EF000CD4A11601146096821F480211160B0F5D6
:100F0000803F03D0B0F5802F0ED106E0C6490968B6
:100F100041F48031C44A116007E0C349096841F4D3
:100F2000A021C14A116000E000BF00BF704710B5AA
:100F300001460022002300204A11012A02D1BA4CA6
:100F4000236806E0022A02D1B74C236A01E0B64CBE
:100F5000636A01F01F02012494401C400CB101207F
:100F600000E0002010BD38B50020009000240025CE
:100F700000BF3120FFF7DBFF05460098401C0090C2
:100F80000098B0F5A06F01D0002DF2D03120FFF70E
:100F9000CEFF08B1012400E00024204638BD014600
:100FA0000020A14A106820F0F80040EAC10010605B
:100FB0007047A04908607047024600209A4B586865
:100FC00020F47C1042EA01031843974B58607047A5
:100FD00098490866704701460020934A506820F0FF
:100FE00003000843506070478F48406800F00C00D1
:100FF0007047014600208C4A506820F0F0000843FA
:101000005060704701460020874A506820F4E06035
:1010100008435060704701460020834A506820F41E
:10102000605040EAC1005060704729B17E4A527A50
:1010300002437D4B5A7204E07B4A527A82437A4BD8
:101040005A7270477B49D8310860704701460020CA
:10105000754A506820F440400843506070470021B2
:10106000714A20321170704A82F82010012802D093
:1010700004280AD104E001216B4A2032117005E0F6
:101080000521694A2032117000E000BF00BF70479F
:101090006949086070476449096A0143624A1162FC
:1010A0007047654944390860704730B50021002217
:1010B000002400235C4D6D6805F00C0121B104296A
:1010C00005D0082923D105E05C4D056022E05B4D89
:1010D00005601FE0544D6D6805F47012524D6D6847
:1010E00005F48034022505EB92421CB9544D55435A
:1010F00005600BE04C4D6D6805F400351DB1504D99
:101100005543056002E04D4D5543056002E04B4DEF
:10111000056000BF00BF444D6D6805F0F00109098E
:10112000484D6B5C0568DD4045603F4D6D6805F4DA
:10113000E061090A434D6B5C4568DD4085603A4DCE
:101140006D6805F46051C90A3E4D6B5C4568DD4031
:10115000C560354D6D6805F44041890B3A4D6B5CB7
:10116000C568B5FBF3F5056130BD29B12E4A52695A
:1011700002432D4B5A6104E02B4A526982432A4BA9
:101180005A61704729B1284A92690243264B9A61F5
:1011900004E0254A92698243234B9A61704729B142
:1011A000214AD2690243204BDA6104E01E4AD26927
:1011B00082431D4BDA61704729B11B4AD268024352
:1011C000194BDA6004E0184AD2688243164BDA60A1
:1011D000704729B1144A12690243134B1A6104E0A3
:1011E000114A12698243104B1A6170471249403903
:1011F000086070470F49C86470470B49C871704751
:101200000948406A40F080700749486270470146CB
:101210000020054A92680A400AB1012000E000203F
:101220007047014988727047001002400000FFF8C3
:10123000FFFFF6FE000042428004424200127A00A4
:1012400000093D007C0000208C00002010B5044601
:10125000CC48844208D101210420FFF7ADFF0021D2
:101260000420FFF7A9FF46E0C748844208D10121C6
:101270000820FFF7A1FF00210820FFF79DFF3AE0BB
:10128000C248844208D101211020FFF795FF0021B8
:101290001020FFF791FF2EE0BD48844208D10121C4
:1012A0002020FFF789FF00212020FFF785FF22E0A3
:1012B000B848844208D101214020FFF77DFF00217A
:1012C0004020FFF779FF16E0B348844208D101219E
:1012D0008020FFF771FF00218020FFF76DFF0AE0FB
:1012E000AE48844207D101218015FFF765FF002138
:1012F000A015FFF761FF10BD10B501210846FFF7EB
:101300005BFF00210120FFF757FF10BD2DE9F041E1
:10131000024600250026002000230024002791F823
:1013200003C00CF00F0591F803C00CF0100CBCF1D9
:10133000000F03D091F802C04CEA050591F800C0F7
:10134000BCF1000F31D0146800202BE04FF0010CED
:101350000CFA00F3B1F800C00CEA03069E4220D15B
:1013600083004FF00F0C0CFA03F7BC4305FA03FCA3
:101370004CEA040491F803C0BCF1280F06D14FF0E9
:10138000010C0CFA00FCC2F814C00AE091F803C08A
:10139000BCF1480F05D14FF0010C0CFA00FCC2F86B
:1013A00010C0401C0828D1D31460B1F800C0BCF1B3
:1013B000FF0F34DD546800202EE000F1080C4FF0E0
:1013C000010808FA0CF3B1F800C00CEA03069E42CB
:1013D00021D183004FF00F0C0CFA03F7BC4305FA40
:1013E00003FC4CEA040491F803C0BCF1280F05D1BA
:1013F00000F1080C08FA0CF8C2F8148091F803C048
:10140000BCF1480F07D100F1080C4FF0010808FAB1
:101410000CF8C2F81080401C0828CED35460BDE8F8
:10142000F0814FF6FF710180022181700421C170AB
:1014300070470246002093680B400BB1012000E08A
:10144000002070470146886880B27047024600203D
:10145000D3680B400BB1012000E00020704701462B
:10146000C86880B2704701617047416170470AB136
:10147000016100E041617047C16070474FF4803204
:101480000A43826181618261826982697047024692
:101490000020434B18684FF68073184040EA021052
:1014A00008433F4B186070473E49C8617047F0B52C
:1014B0000A46002300240021002500F00046B6F172
:1014C000004F02D1364EF16901E0354E7168C0F32C
:1014D000034583B200F44016B6F5401F08D121F051
:1014E00070612F4E766826F070662D4F7E6012E098
:1014F00000F48016B6F5801F06D1032606FA05F41F
:10150000A14341F0706106E0460D360103FA06F68C
:10151000B14341F0706122B1460D360103FA06F67F
:10152000314300F00046B6F1004F02D11C4EF1618C
:1015300001E01B4E7160F0BD30B500228B071C0F1F
:101540000F2303FA04F2164B08338C1053F824309F
:101550009343134C08348D1044F8253023468C10E7
:1015600053F824308C07240F00FA04F423430C4C66
:1015700008348D1044F8253030BD0A49DC3108604C
:101580007047000000080140000C014000100140BD
:101590000014014000180140001C014000200140DF
:1015A000000001400000204210B50446F748844284
:1015B00009D101214805FFF70CFE00214FF400106E
:1015C000FFF707FE08E001218805FFF702FE002172
:1015D0004FF48000FFF7FDFD10BD2DE9F04385B00D
:1015E00004460D460026B1460427DFF8A483A688EA
:1015F0004FF6C07006406846FFF757FDDDF80880DB
:10160000E448B8FBF0F01FFA80F946EA0906A68024
:1016100020884FF6FE71084020800026DE492868A9
:1016200088420CD828684000B8FBF0F087B2042F3D
:1016300000DA04273E4309F10100208427E0E8880E
:101640004BF6FF71884206D1286800EB4000B8FBDA
:10165000F0F087B209E0286800EBC00101EB001050
:10166000B8FBF0F087B247F48047C7F30B0008B926
:1016700047F0010747F4004006434FF4967009FB1A
:1016800000F04FF47A7190FBF1F0401C2084A683A7
:10169000208840F00100208026884FF6F530064073
:1016A000A8886989084306432680A88929890843B0
:1016B000208105B0BDE8F08341F28831016000214E
:1016C00081804BF6FF71C1800021018141814FF47F
:1016D00080418181704721B1028842F0010202807D
:1016E00004E002884FF6FE731A400280704721B171
:1016F000828842F40062828004E082884FF2FF73A5
:101700001A408280704721B1828842F480528280E0
:1017100004E082884EF6FF731A408280704721B140
:10172000028842F48072028004E002884FF6FF6370
:101730001A400280704721B1028842F40072028090
:1017400004E002884FF6FF531A400280704721B12F
:10175000028842F48062028004E002884FF6FF3380
:101760001A40028070470A46002181894FF60173B2
:10177000194002F0FE0319438181704721B182892B
:1017800042F00102828104E082894FF6FE731A4022
:101790008281704721B1028842F04002028004E059
:1017A00002884FF6BF731A40028070471AB18388CF
:1017B0000B43838002E083888B43838070470182E0
:1017C00070470146088AC0B2704712B141F001016A
:1017D00002E04FF6FE7319400182704708B50246D9
:1017E0000020009000920098084400900098008823
:1017F00008BD21B1028842F40042028003E0028861
:10180000C2F30E0202807047B1F5006F04D1028866
:1018100042F40062028004E002884FF2FF731A4033
:1018200002807047B1F5005F04D1028842F4005293
:10183000028004E002884DF6FF731A400280704770
:1018400021B1028842F48052028004E002884EF600
:10185000FF731A4002807047B1F5006F04D102880F
:1018600042F40062028004E002884FF2FF731A40E3
:101870000280704721B1028842F02002028004E019
:1018800002884FF6DF731A40028070470146088BCA
:101890000012704721B1028842F01002028004E079
:1018A00002884FF6EF731A400280704721B9028810
:1018B00042F08002028004E002884FF67F731A40F3
:1018C00002807047B1F5804F05D0828B4BF6FF73D5
:1018D0001A40828303E0828B42F480428283704705
:1018E00070B502460024002500230020958A138B42
:1018F0001B0445EA030626F07F4404EA01068E42F3
:1019000001D1012000E0002070BD10B5014600208B
:10191000002300228B8A0A8B120443EA020424F07B
:101920007F4010BD0CB502460020002301930093B8
:1019300000920B0F019321F07F41019B1BB1009B93
:101940001433009303E0090C009B18330093009BB1
:101950001B680B400BB1012000E000200CBD0022F1
:1019600021F07F42D3438382704730B50246002086
:101970000023948801F0E06504EA154321F07F41DB
:10198000948A0C4054B14BB1012008E0005400404F
:1019900000127A0040420F00A0860100002030BDF6
:1019A000002221F07F42D3438382704710B5044662
:1019B000FE48844208D10121C014FFF7FDFB00213D
:1019C000E014FFF7F9FBC4E0B4F1804F08D1012126
:1019D0000846FFF7FEFB00210120FFF7FAFBB8E005
:1019E000F348844208D101210220FFF7F2FB0021D5
:1019F0000220FFF7EEFBACE0EE48844208D1012163
:101A00000420FFF7E6FB00210420FFF7E2FBA0E043
:101A1000E948844208D101210820FFF7DAFB0021C0
:101A20000820FFF7D6FB94E0E448844208D1012166
:101A30001020FFF7CEFB00211020FFF7CAFB88E043
:101A4000DF48844208D101212020FFF7C2FB00219A
:101A50002020FFF7BEFB7CE0DA48844208D1012158
:101A60004014FFF7A9FB00216014FFF7A5FB70E00D
:101A7000D548844209D10121C804FFF79DFB00210C
:101A80004FF40020FFF798FB63E0D048844209D16F
:101A900001210805FFF790FB00214FF48010FFF7AC
:101AA0008BFB56E0CA48844209D101214805FFF763
:101AB00083FB00214FF40010FFF77EFB49E0C5488F
:101AC000844208D101214020FFF783FB0021402000
:101AD000FFF77FFB3DE0C048844208D10121802010
:101AE000FFF777FB00218020FFF773FB31E0BB4855
:101AF000844208D101218015FFF76BFB0021A0155E
:101B0000FFF767FB25E0B648844209D101210804AC
:101B1000FFF752FB00214FF48030FFF74DFB18E038
:101B2000B048844209D101214804FFF745FB002158
:101B30004FF40030FFF740FB0BE0AB48844208D184
:101B400001218804FFF738FB00214FF48020FFF7C4
:101B500033FB10BD00220288944B98420ED0994B63
:101B600098420BD0B0F1804F08D0914B984205D0ED
:101B7000904B984202D0904B984204D14FF68F730D
:101B80001A404B881A438D4B984207D08C4B984291
:101B900004D04FF6FF431A40CB881A4302808B884B
:101BA00083850B880385814B98420BD0854B9842E7
:101BB00008D08B4B984205D08A4B984202D08A4B72
:101BC000984201D10B7A038601238382704770B556
:101BD000002400220023058C4FF6FE763540058454
:101BE000028C8388048B4FF68F752C40B51E2C40D9
:101BF0000D882C43751E2A400D892A434D882A439F
:101C00006A4DA8420BD06F4DA84208D0744DA8422F
:101C100005D0744DA84202D0734DA84213D14FF69F
:101C2000F7752A404D892A434FF6FB752A408D8867
:101C30002A434FF6FF652B404FF6FF552B408D8909
:101C40002B43CD892B4383800483CD8885860284F2
:101C500070BD70B5002400220023058C4FF6EF768E
:101C600035400584028C8388048B48F6FF752C4030
:101C70004FF6FF452C400D884FF6FF7606EA052506
:101C80002C434FF6DF752A400D8906EA05152A43D5
:101C90004D8806EA05152A43444DA84202D0494D15
:101CA000A8421DD14FF67F752A404D894FF6FF7629
:101CB00006EA05152A434FF6BF752A408D8806EAC5
:101CC00005152A434FF6FF352B404FF2FF752B4089
:101CD0008D8906EA85052B43CD8906EA85052B43C8
:101CE00083800483CD880587028470BD70B500248D
:101CF00000220023058C4FF6FF6635400584028CD8
:101D00008388848B4FF68F752C404FF6FC752C40E2
:101D10000D882C434FF6FF552A400D894FF6FF766C
:101D200006EA05252A434D8806EA05252A431F4D64
:101D3000A84202D0234DA8421DD14FF2FF752A4080
:101D40004D894FF6FF7606EA05252A434FF6FF3503
:101D50002A408D8806EA05252A434EF6FF752B405A
:101D60004DF6FF752B408D8906EA05152B43CD896D
:101D700006EA05152B4383808483CD8885870284FA
:101D800070BD70B5002200230024058C4EF6FF764E
:101D900035400584038C8488828B48F6FF752A4081
:101DA0004FF6FF452A400D8820E00000002C01403E
:101DB0000004004000080040000C004000100040FB
:101DC0000014004000340140004C0140005001402C
:101DD0000054014000180040001C0040002000405A
:101DE0000040014000440140004801404FF6FF76AA
:101DF00006EA05252A434DF6FF752B400D8906EAB4
:101E000005352B434D8806EA05352B43FA4DA8428C
:101E100002D0FA4DA84208D14BF6FF752C408D89AF
:101E20004FF6FF7606EA85152C4384808283CD88A1
:101E3000A0F84050038470BD828B4FF2FF331A40EC
:101E40008283828B4FF6FF7303EA01231A43828356
:101E50007047F0B50C461546002200210026078C7D
:101E60004EF6FF7C07EA0C070784828B018C4FF645
:101E7000FF7707EA043640F6FF473A404FF6FF7710
:101E800007EA05273A434FF6FF7707EA03373A4355
:101E9000D94FB8420ED0D94FB8420BD0B0F1804FD5
:101EA00008D0D74FB84205D0D64FB84202D0D64F4F
:101EB000B84206D14DF6FF77394046F48057394392
:101EC00005E047F6FF57394044F480573943828391
:101ED0000184F0BD828B4FF6F3731A408283828BAC
:101EE0000A4382837047F0B50C4615460022002154
:101EF0000026078C4FF6FF6C07EA0C070784828BDD
:101F0000018C4FF6FF7707EA04264FF60C773A402C
:101F10004FF6FF7707EA03172F433A43B64FB8420D
:101F20000ED0B64FB8420BD0B0F1804F08D0B44FAE
:101F3000B84205D0B34FB84202D0B34FB84206D131
:101F40004FF6FF57394046F48077394305E04FF2AA
:101F5000FF57394044F48077394382830184F0BDD0
:101F6000028B4FF2FF331A400283028B4FF6FF734E
:101F700003EA01231A4302837047F0B50C46154665
:101F8000002200210026078C4FF6EF7C07EA0C07A1
:101F90000784028B018C4FF6FF7707EA041640F6A0
:101FA000FF473A404FF6FF7707EA03373A434FF6C9
:101FB000FF7707EA05273A438F4FB8420ED08F4F7D
:101FC000B8420BD0B0F1804F08D08D4FB84205D049
:101FD0008C4FB84202D08C4FB84206D14FF6DF7713
:101FE000394046F01007394305E04FF65F77394036
:101FF00044F01007394302830184F0BD028B4FF691
:10200000F3731A400283028B0A4302837047F0B5D0
:102010000C46154600220021068C4FF6FE773E4006
:102020000684028B018C4FF60C7632407E1C06EA49
:1020300003162E433243704EB0420ED06F4EB04264
:102040000BD0B0F1804F08D06D4EB04205D06D4E30
:10205000B04202D06C4EB04206D14FF6FD76314010
:1020600044F00106314305E04FF6F576314044F087
:102070000106314302830184F0BD70B505460C466C
:102080005D4885420ED05D4885420BD0B5F1804F4A
:1020900008D05B48854205D05A48854202D05A484C
:1020A000854200D100E000BF208850B92389A28872
:1020B00061882846FFF7ABFFE1882846FFF79EFFBF
:1020C00025E0208804280AD12389A288618828462F
:1020D000FFF753FFE1882846FFF742FF17E020880B
:1020E00008280AD12389A28861882846FFF7FBFEC9
:1020F000E1882846FFF7EEFE09E02389A28861887F
:102100002846FFF7A6FEE1882846FFF795FE70BD3A
:102110002DE9F04105460C4600260127608808B9E4
:10212000022600E00026A088012801D1022700E055
:1021300001272088A0B92389A28861882846FFF753
:1021400066FFE1882846FFF759FF23893A46314662
:102150002846FFF712FFE1882846FFF701FF13E04A
:102160002389A28861882846FFF707FFE18828466F
:10217000FFF7F6FE23893A4631462846FFF747FF28
:10218000E1882846FFF73AFFBDE8F0810A884B88CE
:102190001A438B881A43CB881A430B891A434B89FD
:1021A0001A438B891A43A0F8442070474FF6FF71F9
:1021B000818000210180C18041800172704700212F
:1021C000018041808180C180018141818181C18103
:1021D0007047002101804180012181800021C18060
:1021E000018170470021018041808180C18001818F
:1021F0004181818170470000002C01400034014082
:102200000004004000080040000C004021B102889A
:1022100042F00102028004E002884FF6FE731A4089
:102220000280704731B1B0F8442042F40042A0F877
:10223000442005E0B0F84420C2F30E02A0F8442088
:1022400070471AB183890B43838102E083898B43F2
:10225000838170478182704741EA0203A0F84830C9
:1022600070471AB183890B43838102E083898B43D2
:102270008381704701894FF6F872114001817047E0
:102280000A46002101894FF68F73194011430181DD
:10229000704730B504460D4629462046FFF7F0FF4B
:1022A000208940F00700208130BD2DE9F04104462F
:1022B0000D4616461F46602D06D13B46012231468B
:1022C0002046FFF75AFE05E03B46012231462046F4
:1022D000FFF79DFE29462046FFF7D2FF208940F0F8
:1022E00007002081BDE8F08130B50C46002101894E
:1022F000C9B24FF6FF7505EA032515432543294367
:10230000018130BD2DE9F04105460E46174698463D
:10231000002443463A4631462846FFF7E5FF2C891C
:102320004FF6F870044044F007044FF68F700440F5
:1023300044F070042C81BDE8F081F0B504460D46F0
:1023400016461F463B46324629462046FFF7CCFF3D
:10235000208940F480402081F0BD01858282704751
:102360000A46002101884FF68F73194011430180FE
:102370007047F0B50C4615461E460021002200238A
:102380000189028B038C4FF6F877394021434FF6D1
:10239000FC473A4040F201173A434FF6DD773B40A5
:1023A0004FF6FF7707EA06172F433B43018102836D
:1023B0000384F0BD0A460021018B4FF68F7319404C
:1023C0001143018370470A460021018B48F6FF73D1
:1023D00019404FF6FF7303EA022319430183704744
:1023E0000A460021818B4FF68F7319401143818378
:1023F00070470A460021818B48F6FF7319404FF65B
:10240000FF7303EA022319438183704721B10288D5
:1024100042F08002028004E002884FF67F731A4087
:102420000280704721B1828842F00402828004E079
:1024300082884FF6FB731A408280704721B18288F0
:1024400042F00802828004E082884FF6F7731A4057
:102450008280704721B1828842F00102828004E0CC
:1024600082884FF6FE731A40828070470A46002128
:10247000018B4FF6F77319401143018370470A46E9
:102480000021018B4FF2FF7319404FF6FF7303EAEF
:1024900002231943018370470A460021818B4FF6BE
:1024A000F77319401143818370470A460021818BDD
:1024B0004FF2FF7319404FF6FF7303EA02231943EB
:1024C000818370470A460021018B4FF6FB73194048
:1024D0001143018370470A460021018B4FF6FF33F9
:1024E00019404FF6FF7303EA022319430183704733
:1024F0000A460021818B4FF6FB73194011438183FB
:1025000070470A460021818B4FF6FF3319404FF682
:10251000FF7303EA02231943818370470A460021AF
:10252000018B4FF67F7319401143018370470A46B0
:102530000021018BC1F30E014FF6FF7303EA022362
:102540001943018370470A460021818B4FF67F7340
:1025500019401143818370470A460021818BC1F3E2
:102560000E014FF6FF7303EA02231943818370477C
:102570000A460021018C4FF6FD7319401143018476
:1025800070470A460021018C4FF6F773194011433A
:10259000018470470A460021018C4FF6DF73194011
:1025A0004FF6FF7303EA02131943018470470A468A
:1025B0000021018C4FF67F7319404FF6FF7303EA39
:1025C00002131943018470470A460021018C4FF61B
:1025D000FF5319404FF6FF7303EA022319430184A6
:1025E00070470A460021018C4FF2FF7319404FF6E5
:1025F000FF7303EA02231943018470470A4600214E
:10260000018C4DF6FF7319404FF6FF7303EA023356
:1026100019430184704730B5002301248C40A3B2D4
:10262000048C9C430484048C02FA01F5ADB22C4363
:10263000048430BD30B5002304248C40A3B2048C44
:102640009C430484048C02FA01F5ADB22C4304844B
:1026500030BD70B50346002000241846183001250F
:102660008D40ACB21D8CA5431D8409B1082909D148
:1026700000EB6100056825F07005056005681543ED
:1026800005600EE00D1FC5F34E052844056825F4CE
:10269000E045056005684FF6FF7606EA02263543F9
:1026A000056070BD21B1028842F00202028004E0A0
:1026B00002884FF6FD731A400280704721B10288EC
:1026C00042F00402028004E002884FF6FB731A40D5
:1026D0000280704721B1828842F08002828004E04B
:1026E00082884FF67F731A408280704702884FF6C7
:1026F000F7731A40028002880A430280704782887A
:102700004FF68F731A40828082880A438280704716
:1027100002894FF6F8731A40028102890A43028146
:10272000704702894FF67F731A40028102890A437B
:102730000281704781847047818570478186704728
:102740000187704781877047A0F840107047028862
:102750004FF6FF431A40028002880A430280704706
:102760000146888E70470146088F70470146888F62
:1027700070470146B1F8400070470146888C7047A9
:102780000146088D704702460020138A0B400BB1AA
:10279000012000E000207047CA430282704730B534
:1027A0000246002000230024158A05EA01039589CA
:1027B00005EA010413B10CB1012000E0002030BD96
:1027C000CA4302827047000010B50446FB488442A9
:1027D00009D101218803FEF7EFFC00214FF480406E
:1027E000FEF7EAFC32E0F648844209D101214804B0
:1027F000FEF7EFFC00214FF40030FEF7EAFC25E085
:10280000F048844209D101218804FEF7E2FC00214E
:102810004FF48020FEF7DDFC18E0EB48844209D13C
:102820000121C804FEF7D5FC00214FF40020FEF77B
:10283000D0FC0BE0E548844208D101210805FEF7F1
:10284000C8FC00214FF48010FEF7C3FC10BD2DE939
:10285000F04786B005460E460024A24600BFA146BA
:102860000027B08900B100BF2F462C8A4CF6FF70BC
:102870000440F08804432C82AC894EF6F3100440E7
:10288000B08831890843718908430443AC81AC8A1C
:102890004FF6FF400440B0890443AC8201A8FEF724
:1028A00004FCC648874202D1DDF810A001E0DDF843
:1028B0000CA0A88900F4004040B10AEBCA0000EB6C
:1028C0000A1031684900B0FBF1F807E00AEBCA00D2
:1028D00000EB0A1031688900B0FBF1F86420B8FB06
:1028E000F0F004012009642101FB1089A88900F49B
:1028F000004040B1322000EBC900B0FBF1F000F025
:102900000700044308E0322000EB09106421B0FB0B
:10291000F1F000F00F0004432C8106B0BDE8F08711
:102920004FF41651016000218180C18001810C218A
:10293000418100218181704710B502460020108A34
:102940004FF2FF0318400B884C8823438C882343A5
:10295000CC8823431843108210BD002101804180A0
:102960008180C180704721B1828942F40052828106
:1029700004E082894DF6FF731A4082817047F0B5FA
:102980000346002400260025002040F66A17B942BD
:1029900000D100BF1846C1F3421401F01F06012701
:1029A00007FA06F5012C01D10C3004E0022C01D10C
:1029B000103000E014301AB107682F43076002E0BE
:1029C0000768AF430760F0BD1AB1838A0B43838267
:1029D00002E0838A8B4383827047028A4FF6F0734A
:1029E0001A400282028A0A430282704782894FF2A9
:1029F000FF731A40828182890A438281704721B124
:102A0000828942F00202828104E082894FF6FD73DE
:102A10001A4082817047028A4FF6DF731A400282A1
:102A2000028A0A430282704721B1028A42F480423C
:102A3000028204E0028A4BF6FF731A40028270475A
:102A4000C1F308028280704701468888C0F30800FD
:102A50007047818941F0010181817047028BD2B2B8
:102A60000283028B42EA012202837047028B02F446
:102A70007F420283028B0A430283704721B1828A1C
:102A800042F02002828204E0828A4FF6DF731A400D
:102A90008282704721B1828A42F01002828204E071
:102AA000828A4FF6EF731A408282704721B1828A80
:102AB00042F00802828204E0828A4FF6F7731A40DD
:102AC0008282704721B1828942F40042828103E010
:102AD0008289C2F30E028281704721B1828A42F458
:102AE0000062828204E0828A4FF2FF731A4082827F
:102AF0007047828A4FF6FB731A408282828A0A43A9
:102B00008282704721B1828A42F00202828204E00E
:102B1000828A4FF6FD731A40828270470246002077
:102B2000B1F5007F00D100BF13880B400BB101202D
:102B300000E00020704701F40072B2F5007F00D180
:102B400000BFCA430280704770B5024600240023CC
:102B50000025002040F66A16B14200D100BFC1F343
:102B6000421501F01F03012606FA03F3012D02D1DD
:102B70009689334006E0022D02D1168A334001E0E7
:102B8000968A33400C12012606FA04F41688344063
:102B900013B10CB1012000E0002070BD10B500227F
:102BA000002340F66A14A14200D100BF0A1201249A
:102BB0009440A3B2DC43048010BD00000038014003
:102BC0000044004000480040004C004000500040DD
:102BD00010B50446FA48844208D101214015FEF799
:102BE000EBFA00216015FEF7E7FA17E0F54884429A
:102BF00008D101210015FEF7DFFA00212015FEF7AC
:102C0000DBFA0BE0F048844208D10121C803FEF74B
:102C1000D3FA00214FF40040FEF7CEFA10BD30B5D4
:102C20000246002000235068E84C20400D790C68D3
:102C300044EA0524204350609068E54C2040D1E9E7
:102C400002542C434D7944EA450420439060D06AF5
:102C500020F470000C7C641EE4B2234340EA03506D
:102C6000D06230BD00210160017141718160C1609D
:102C700001210174704721B1826842F00102826033
:102C800003E0826822F001028260704721B182680D
:102C900042F48072826003E0826822F48072826073
:102CA000704710B50023CBB21AB144681C4344608E
:102CB00002E044689C43446010BD816841F0080113
:102CC00081607047014600208A6802F008020AB15C
:102CD000012000E000207047816841F0040181601C
:102CE0007047014600208A6802F004020AB1012000
:102CF00000E00020704721B1826842F4A0028260A7
:102D000003E0826822F4A00282607047014600203E
:102D10008A6802F480020AB1012000E000207047B6
:102D200010B50A4600210023416821F46041531E7A
:102D300041EA4331416010BD21B1426842F4006272
:102D4000426003E0426822F4006242607047F0B5DE
:102D500004460D4600200021092D11DDE068A5F193
:102D60000A0606EB4607072606FA07F18843A5F18F
:102D70000A0606EB460603FA06F10843E0600CE09B
:102D8000206905EB4507072606FA07F1884305EB9E
:102D9000450603FA06F108432061072A0FDA606B43
:102DA000561E06EB86071F2606FA07F18843561EB5
:102DB00006EB860605FA06F10843606322E00D2A59
:102DC0000FDA206BD61F06EB86071F2606FA07F1DF
:102DD0008843D61F06EB860605FA06F108432063F2
:102DE00010E0E06AA2F10D0606EB86071F2606FA40
:102DF00007F18843A2F10D0606EB860605FA06F1F7
:102E00000843E062F0BD21B1826842F48012826022
:102E100003E0826822F48012826070470146C86C29
:102E200080B2704766484C300068704721B14268F4
:102E300042F48062426003E0426822F480624260B1
:102E4000704721B1426842F48052426003E0426818
:102E500022F48052426070470A460021816821F4C2
:102E6000E04111438160704721B1826842F4004221
:102E7000826003E0826822F400428260704721B1E0
:102E8000826842F40212826003E0826822F4021235
:102E900082607047014600208A6802F400120AB17D
:102EA000012000E000207047F0B5044615460020E0
:102EB00000220026092911DDE068A1F10A0707EBCD
:102EC000470C072707FA0CF29043A1F10A0707EB1A
:102ED000470703FA07F21043E0600CE0206901EBBA
:102EE000410C072707FA0CF2904301EB410703FA64
:102EF00007F210432061A06BC0F30156EF1C06F1EE
:102F0000010CA7EB0C0707EB870C1F2707FA0CF245
:102F10009043EF1C06F1010CA7EB0C0707EB8707AA
:102F200001FA07F21043A063F0BD10B50A46002174
:102F30000023816B21F44011531E41EA0351816348
:102F400010BD08B5002300930090009B0B44009334
:102F5000009B1A6008BD08B5024600200090009250
:102F600001F12800009B184400900098006880B28E
:102F700008BD0A4600214168164B194011434160C3
:102F800070474162826270470A460021416821F021
:102F90001F0111434160704740B109490831096878
:102FA00041F40001064A0832116007E00449083183
:102FB000096821F40001024A0832116070470000DC
:102FC0000024014000280140003C0140FFFEF0FFCA
:102FD000FDF7F1FFFFFD3FFF0246002013680B40A5
:102FE0000BB1012000E000207047CA430260704727
:102FF00070B502460020002300240B125568CEB2A3
:1030000005EA060415681D4015B10CB1012000E069
:10301000002070BD00220A12D343036070470000F5
:1030200001684FF6FE7211400160002101604160AD
:103030008160C1608D49884208D18C49083949684E
:1030400041F00F01894A083A51608AE087491431FA
:10305000884208D185490839496841F0F001834A1E
:10306000083A51607DE081492831884208D17F4982
:103070000839496841F470617C4A083A516070E04F
:103080007A493C31884208D178490839496841F485
:103090007041764A083A516063E074495031884281
:1030A00008D172490839496841F470216F4A083AD9
:1030B000516056E06D496431884208D16B49083946
:1030C000496841F47001694A083A516049E067492A
:1030D0007831884208D165490839496841F0706102
:1030E000624A083A51603CE06149884206D1011FBA
:1030F000096841F00F01021F116032E05C49143190
:10310000884208D15A49091F096841F0F001584A1C
:10311000121F116025E056492831884208D15449D0
:10312000091F096841F47061514A121F116018E0CB
:103130004F493C31884208D14D49091F096841F483
:1031400070414B4A121F11600BE0494950318842CF
:1031500007D14749091F096841F47021444A121FE9
:103160001160704710B50022026847F6F0739A4369
:103170000C6A8B6823430C6923434C6923438C6995
:103180002343CC6923434C6A23438C6A23431A4369
:103190000260CB6843600B6883604B68C36010BDFE
:1031A0000021016041608160C16001614161816114
:1031B000C161016241628162704721B1026842F0DF
:1031C0000102026004E002684FF6FE731A400260DA
:1031D00070471AB103680B43036002E003688B4336
:1031E00003607047416070470146486880B270478D
:1031F00001460020002201F080531BB11C4B083B0C
:103200001A6802E0194B083B1A6802EA01030BB185
:10321000012000E00020704700F0805119B11449EE
:10322000091F086002E011490839486070470146EB
:103230000020002201F080531BB10D4B083B1A689F
:1032400002E00A4B083B1A6802EA01030BB10120B5
:1032500000E00020704700F0805119B10449091FB7
:10326000086002E0014908394860704708000240E0
:10327000080402400948804709480047FEE7FEE786
:10328000FEE7FEE7FEE7FEE7FEE7FEE7FEE7FEE716
:1032900004480549054A064B70470000A70D000881
:1032A0003101000890070020900D002090090020B7
:1032B000900900207FB505460C4601210846FDF720
:1032C0006EFFADF80850ADF804400120ADF80A00DB
:1032D0000020ADF8060001A94FF08040FEF73AFC4F
:1032E000012211469007FEF7ACFF1C208DF800006C
:1032F00000208DF801008DF8020001208DF80300F8
:103300006846FDF778FC01218807FEF77FFF7FBD47
:1033100010B501218807FFF742FA40B10121880763
:10332000FFF74EFA02480068401C0149086010BDD2
:10333000940000202DE9F05F04460D462946206ADE
:1033400003F0DAFCE060E168206803F0CDFB814621
:10335000A06903F069FB8246E16803F0F9F9804651
:1033600003F026FBA061A06903F05EFB8046616864
:1033700003F0BAFB06464FF08040216903F0B4FB2E
:1033800082466169E06803F0E3F98346514603F041
:10339000B3FC8046A16803F0A7FB07462069606183
:1033A000E0682061484603F003FB8046304603F0A6
:1033B000FFFA8044384603F0FBFA4044E061E069DC
:1033C00003F032FB80460E480168404603F058FC8B
:1033D00004D20B48006803F0EBFAE061E06903F007
:1033E00023FB804607480168404603F049FB04D2AE
:1033F0000448006803F0DCFAE061E069BDE8F09F92
:10340000980000209C0000202DE9F0410546002492
:103410000026002700211348006803F031FB06D284
:103420001048006803F0C4FA00F5B47604E00D48D3
:10343000006803F0BDFA0646701B4FF4B47190FBB0
:10344000F1F201FB1204B42C01DDA4F5B4742046A2
:1034500003F0EAFA8046044903F0E8F907463846E3
:10346000BDE8F081600500200000A04100B585B0F6
:1034700001214805FDF793FE01210820FDF782FE9A
:10348000C020ADF8000003208DF802001C208DF84C
:1034900003006946F448FDF739FFF448FEF784F865
:1034A0000020ADF808004BF6FF70ADF80A003020A0
:1034B000ADF80C004FF48060ADF80E000001ADF8DF
:1034C0001000EB4801900121E848FEF704F901A93A
:1034D000E648FEF782F805B000BD70B504460D461B
:1034E00000BF4FF40031E148FEF71CFA0028F8D184
:1034F0000121DE48FEF713F900BFDE49DB48FEF785
:10350000EFF90028F9D000227821D848FEF75DF9BC
:1035100000BFD949D548FEF7E3F90028F9D0214684
:10352000D248FEF74CF900BFD349891CCF48FEF7BB
:10353000D7F90028F8D02946CC48FEF740F900BF5B
:10354000CD49891CC948FEF7CBF90028F8D00121E4
:10355000C648FEF7F0F870BD10B5044621460020BD
:10356000FFF7BBFF10BD10B5044621464020FFF712
:10357000B4FF10BD10B56420FDF709F9AE20FFF7C8
:10358000EBFF2020FFF7E8FF1020FFF7E5FFB0205A
:10359000FFF7E2FFC820FFF7DFFF0020FFF7DCFFA7
:1035A0001020FFF7D9FF4020FFF7D6FF8120FFF75B
:1035B000D3FFFF20FFF7D0FFA120FFF7CDFFA6200C
:1035C000FFF7CAFFA820FFF7C7FF3F20FFF7C4FFA0
:1035D000A420FFF7C1FFD320FFF7BEFF0020FFF7B5
:1035E000BBFFD520FFF7B8FFF020FFF7B5FFD920CC
:1035F000FFF7B2FF2220FFF7AFFFDA20FFF7ACFFA3
:103600001220FFF7A9FFDB20FFF7A6FF2020FFF71E
:10361000A3FF8D20FFF7A0FF1420FFF79DFFAF2031
:10362000FFF79AFF10BD70B504460D4605F1B001D5
:10363000C8B2FFF791FF102141EA1410FFF78CFF89
:1036400004F00F0141F00100FFF786FF70BD70B577
:103650000646002415E004F1B001C8B2FFF77CFF74
:103660000020FFF779FF1020FFF776FF002504E028
:103670003046FFF778FF681CC5B2802DF8DB601C70
:10368000C4B2082CE7DB70BD10B50020FFF7DFFFE8
:1036900010BD10B58D20FFF75FFF1420FFF75CFF12
:1036A000AF20FFF759FF10BD10B58D20FFF754FF75
:1036B0001020FFF751FFAE20FFF74EFF10BD2DE9A0
:1036C000F0470646894617469A464FF00008002400
:1036D0000025BAF1010F03D0BAF1020F5ED125E047
:1036E00020E0785D203800F0FF087E2E04DD002603
:1036F00009F1010000F0FF0949463046FFF793FF4A
:10370000002409E008EB48015C4A02EB4101085D36
:10371000FFF729FF601CC4B2062CF3DBB01DC6B254
:10372000681CC5B2785D0028DBD137E032E0785DF7
:10373000203800F0FF08782E04DD002609F1010092
:1037400000F0FF0949463046FFF76DFF002407E00F
:1037500004EB08114A4A505CFFF705FF601CC4B235
:10376000082CF5DB09F10100C1B23046FFF75BFF21
:10377000002408E004EB08110831414A505CFFF7CF
:10378000F2FE601CC4B2082CF4DB06F10800C6B2DD
:10379000681CC5B2785D0028C9D100BF00BFBDE874
:1037A000F0872DE9F04180460E46174600247D0142
:1037B00031464046FFF737FF00BF06E03149485D1C
:1037C000FFF7D1FE6D1C601CC4B2102CF6DB701C20
:1037D000C1B24046FFF727FF002406E02949485DB3
:1037E000FFF7C1FE6D1C601CC4B2102CF6DBBDE8F7
:1037F000F0812DE9F05F06460F4690461C46DDF845
:1038000028A04FF0000BE11704EB5171C910A4EB95
:10381000C10131B92046E11704EB5171C1F3C7056D
:1038200006E02046E11704EB5171C910491CCDB2E6
:103830003D4614E029463046FFF7F5FEB1460AE062
:1038400059460BF1010B1AF80100FFF78CFE09F144
:10385000010000F0FF09C145F2DB681CC5B2A542BA
:10386000E8DBBDE8F09F0000000C01400054004080
:10387000801A06000100030082000700D66E0008CF
:10388000FE700008A800002000B587B001214FF4A9
:103890000170FDF777FC4FF40040FDF7D7FB1020D7
:1038A000ADF8040000208DF8070001A92E48FDF7AF
:1038B0002DFD2E48FFF78CF9002002908DF80C00AA
:1038C0008DF80D004FF46020049000200590012039
:1038D0008DF8180002A92548FFF7A1F90121234816
:1038E000FFF7C9F92148FFF7E8F900BF1F48FFF7C4
:1038F000E9F90028FAD11D48FFF7EEF900BF1B488F
:10390000FFF7EFF90028FAD107B000BD10B5044663
:103910000723012221461548FFF719FA0121134810
:10392000FFF7E9F900BF02211048FFF755FB002817
:10393000F9D00E48FFF772FA10BD2DE9F0410746A5
:103940000C460025002608E03846FFF7DFFF054457
:103950000520FCF71CFF701CC6B2A642F4DBB5FBC9
:10396000F4F080B2BDE8F08100080140002401407D
:1039700010B5044644B100219448FEF7DBFE012156
:103980009248FEF743FC03E000219048FEF73EFC1E
:1039900010BD10B540F225518D48FFF7D5F800B3A2
:1039A0008B48FFF751F8C4B28A480088C82812DA59
:1039B00000218648FEF7BEFE8648008810B9012027
:1039C000FFF7D6FF834801880088401C814A108099
:1039D0008148445405E07F48008840F400407D4918
:1039E000088010BD7FB505460C4601210420FDF777
:1039F000D6FBADF80450ADF800400020ADF806004D
:103A0000ADF8020069467148FEF7A4F8012211469C
:103A10006E48FEF716FC1E208DF80C0001208DF874
:103A20000D0002208DF80E0001208DF80F0003A874
:103A3000FDF7E1F87FBD70B58CB006460C46154623
:103A400001210846FDF791FB3046FFF7E9FA0194A2
:103A5000029510200390002004900590802006908D
:103A600000200790089009904FF480500A900020A1
:103A70000B9001A93046FFF775FB0CB070BD10B577
:103A800086B0044601210420FDF77CFB0121480497
:103A9000FDF785FB4E48FEF797FE0420ADF81000B9
:103AA00003208DF8120018208DF8130004A94B484C
:103AB000FDF72CFC0820ADF8100004208DF8130051
:103AC00004A94648FDF722FC00940020ADF804004C
:103AD000ADF80600ADF80800ADF80C000C20ADF80C
:103AE0000A0069463A48FEF7B2FE012280213848B2
:103AF000FEF76AFF3A4A3649091D3A48FFF79BFF2D
:103B000001213348FEF72FFF012240F225513048B2
:103B1000FEF735FF26208DF8140002208DF81500E1
:103B200003208DF8160001208DF8170005A8FDF779
:103B300062F841F61F416320FFF754FF002025493A
:103B40000880FFF715FF06B010BD70B504460D469E
:103B500000212046FFF731FB29462046FFF742FBB4
:103B600001212046FFF729FB70BD0FB438B505A829
:103B700000901B48009A049900F000FC002000907F
:103B800000BF1848FFF730FB0028FAD1144800F0B6
:103B900079FDC4B221461348FFF7D7FF38BC5DF862
:103BA00014FB10B501210948FEF7F9FD60B1094881
:103BB000008840F400400749088001210348FEF7CF
:103BC000FFFD0020FFF7D4FE10BD000000080040FC
:103BD000004400404805002068060020000801401D
:103BE000A005002080000240F8B50A260125012129
:103BF0000420FDF7C7FA0220ADF8000010208DF870
:103C0000030003208DF8020069467B48FDF77EFB28
:103C100002217948FDF727FC4FF41650FFF72FFFDC
:103C200032E00120754908600A20FCF7B0FD74A05D
:103C3000FFF79BFF00207449C1F8840100240AE0CB
:103C40007248008800F4004000B106E00520FCF74F
:103C50009EFD601CC4B20A2CF2DB00BF6B480088DA
:103C600000F4004080B16948057800206749088069
:103C7000042D09D1664800784F2805D16448407862
:103C80004B2801D1002504E03000A6F10101CEB29D
:103C9000C7D100BF06B901252846F8BD70B50F266B
:103CA00030E00120554908600A20FCF770FD59A05A
:103CB000FFF75BFF00250AE00A20FCF768FD534888
:103CC000008800F4004000B103E0681CC5B2142D68
:103CD000F2DB00BF0020494908604C48008800F42E
:103CE000004078B1494804780020484908800D2CEC
:103CF00008D1474800782B2804D1454880793038CE
:103D0000C4B204E03000A6F10101CEB2C9D100BFB7
:103D100006B9FF24204670BD2DE9F04105460F2766
:103D20002FE00120354908600A20FCF730FD2946C4
:103D30003BA0FFF71AFF00203349C1F88401002699
:103D40000AE03248008800F4004000B106E0052097
:103D5000FCF71DFD701CC6B2142EF2DB00BF2B4811
:103D6000008800F4004060B128480478002027490A
:103D70000880042C05D1264800784F2801D1002462
:103D800004E03800A7F10101CFB2CAD100BF07B9E2
:103D9000FF242046BDE8F08170B504460120174994
:103DA00008600A20FCF7F3FC21461DA0FFF7DDFEAA
:103DB00000260AE01548008800F4004000B106E043
:103DC0000A20FCF7E4FC701CC6B2322EF2DB00BF06
:103DD00000200A4908600D48008800F4004048B1FE
:103DE0000A480578002009490880094948550EA06D
:103DF00000F0D6FA70BD00000008014084012142A5
:103E000041540D0A00000000000021424805002036
:103E10006806002041542B524F4C453F0D0A0000CC
:103E200025730D0A000000000D0A25730000000034
:103E3000FE4990FBF1F13031FD4A1170FB4990FBD6
:103E4000F1F201FB120042F2107190FBF1F13031FE
:103E5000F84A117042F2107190FBF1F201FB12006E
:103E60004FF47A7190FBF1F13031F34A11704FF455
:103E70007A7190FBF1F201FB1200642190FBF1F1E9
:103E80003031EE4A1170642190FBF1F201FB120017
:103E90000A2190FBF1F13031E94A11700A2190FBBF
:103EA000F1F201FB120000F13001E64A1170704797
:103EB00008B54FF48070ADF8000003208DF80200C3
:103EC00014208DF803006946DF48FDF71FFA4FF410
:103ED0000070ADF8000003208DF8020014208DF86A
:103EE00003006946D848FDF711FA08BD0F2001E02C
:103EF000411EC8B20028FBD1704741F2883000E073
:103F0000401E0028FCD1704700B54FF40070CE4928
:103F10001031086040100860FFF7E8FFCA48083019
:103F2000006808B9012000E0002000F4007008B12A
:103F3000002000BD4FF40070C34914310860FFF742
:103F4000D5FFC1480830006800F4007008B10120B6
:103F5000EFE74FF40070BC4914310860FFF7C6FF6B
:103F60000120E6E700B54FF48070B74914310860CE
:103F7000FFF7BCFF4FF40070B34914310860FFF73E
:103F8000B5FF4FF48070B04910310860FFF7AEFF05
:103F90004FF40070AC4910310860FFF7A7FF00BD77
:103FA00000B54FF48070A84914310860FFF79EFFF8
:103FB0004FF40070A44914310860FFF797FF4FF4E5
:103FC0008070A14910310860FFF790FF4FF48070B6
:103FD0009D4914310860FFF789FF00BD00B54FF41B
:103FE0008070994914310860FFF780FF4FF400702A
:103FF000954910310860FFF779FF4FF480709249BE
:1040000010310860FFF772FF4FF480708E49143151
:104010000860FFF76BFF00BD00B54FF480708A4960
:1040200014310860FFF762FF4FF4007086491031C9
:104030000860FFF75BFF4FF4807083491031086020
:10404000FFF754FF80480830006800F4007040B16A
:104050004FF480707C4914310860FFF747FF00205F
:1040600000BD4FF48070784914310860FFF73EFFBF
:104070000120F5E700B5024608231FE04FF48070E9
:10408000714914310860FFF731FF02F0800028B158
:104090004FF400706C491031086004E04FF4007078
:1040A0006949143108605006020EFFF71FFF4FF4F4
:1040B0008070654910310860FFF718FF1800A3F100
:1040C0000101CBB2DAD14FF480705F49143108603E
:1040D00000BD00B50823002298015B49103108603B
:1040E00017E05006020E4FF48070574914310860F3
:1040F000FFF7FCFE4FF48070534910310860FFF762
:10410000F5FE51480830006800F4007008B142F034
:1041100001021800A3F10101CBB2E2D14FF480708B
:10412000494914310860104600BD70B506460C467A
:104130001546FFF7E9FE08B9002070BD3046FFF7CD
:1041400099FFFFF769FF18B9FFF70CFF0020F4E7AC
:104150002046FFF78FFFFFF75FFF2846FFF78AFF34
:10416000FFF75AFFFFF7FEFEFFF7C7FE0120E4E767
:1041700070B504460D46FFF7C7FE08B9002070BDB4
:104180002046FFF777FFFFF747FF30B9FFF7EAFE5A
:1041900001202E4908700020F1E72846FFF76AFF4A
:1041A000FFF73AFFFFF7B0FE611CC8B2FFF762FFEE
:1041B000FFF732FFFFF78DFF0646FFF70FFFFFF710
:1041C000D1FE3046DBE701B502E00098401E0090CA
:1041D00000980028F9D108BD01B509E0002000E0F1
:1041E000401C4CF250318842FAD30099491E00918C
:1041F00000990029F2D108BD2DE9F05F14220021B9
:104200003C20FFF792FF202201213C20FFF78DFF89
:10421000002202213C20FFF788FF0A20FFF7DCFF85
:1042200003213C20FFF7A4FF094913E0A086010009
:1042300071050020700500206F0500206E0500202C
:104240006D0500206C050020000C01405405002085
:104250004C050020487004213C20FFF789FF3E49AF
:10426000887007213C20FFF783FF3B49C870082175
:104270003C20FFF77DFF384908710846807849786F
:1042800040EA012035490860334800793249C9784D
:1042900040EA01203249086030480068B0F5004F1C
:1042A00006DB2E480068A0F57F40FF382B490860E8
:1042B0002B480068B0F5004F06DB29480068A0F5E0
:1042C0007F40FF38264908602448006802F008F85B
:1042D00006460F462248006802F002F88046324641
:1042E0003B4601F0D7FC04461E4A1F4B02F010F873
:1042F000824601F0BBFD1D4908601D480068012889
:1043000006D1084600681B4908600020184908606B
:10431000184801681548006802F0EEFC134908606F
:10432000BDE8F09F10B51148006802F041FB04465B
:10433000FFF77EFD10BD00B5142200213C20FFF7E1
:10434000F4FE202201213C20FFF7EFFE0022022193
:104350003C20FFF7EAFE00BD4C0500205805002078
:104360005C050020775AF01ADCA54C40600500205F
:104370006805002064050020704700001CB50C464D
:10438000064B7B4469460090204600F030FC044612
:104390000020694600F03EFC20461CBD8F0800004E
:1043A0000FB4044910B503AA029800F04FFC10BCEA
:1043B0005DF814FB580000200FB41CB5084B06AA8A
:1043C0007B4469460090059800F011FC04460020EB
:1043D000694600F01FFC20461CBC5DF814FB000081
:1043E0005108000070B5044685690068C10601D512
:1043F000302600E02026C00707D070BDD4E9012197
:1044000030469047206A401C20626D1EF6D570BD74
:1044100070B5044685690078C00707D170BDD4E93E
:10442000012120209047206A401C20626D1EF6D595
:1044300070BD70B50C460546012A05D02878800667
:1044400000D5EA69002302E0012305E05B1C9342EA
:1044500002D2E05C0028F9D1A869E618C01AA86168
:10446000286A184428622846FFF7BCFF04E0D5E913
:10447000012114F8010B9047B442F8D32846FFF706
:10448000C7FF70BD2DE9F04106460024106875296C
:10449000314616A510D000F018F9002802DA404283
:1044A00013A507E031688A0701D512A502E0490784
:1044B00004D511A5012401E000F010F900210A2221
:1044C00006F1240709E0B0FBF2FCB0FBF2F302FBBB
:1044D0001C00303078541846491C0028F3D123467C
:1044E0002A463046BDE8F04100F001B90000000066
:1044F0002D0000002B000000200000002DE9F05FDF
:10450000894604464FF0000ADFF874B1FB44C0F856
:1045100020A02046E1688847002874D0252806D0CE
:10452000D4E901219047206A401C2062F1E700266F
:104530005F462046E16888472028054607DB312D85
:1045400005D2781910F8200C08B10643F1E7B0073E
:1045500001D526F00406C4F81CA00027C4F818A052
:104560002A2D09D0284601F07DFA38B304EB8708DC
:10457000303DC8F8185019E059F8041B204604EBE8
:1045800087029161E1688847012F054618D1E069EB
:10459000002820DA26F020061DE0D8F8180000EBED
:1045A000800005EB40003038C8F818002046E1686C
:1045B0008847054601F056FA0028EED1012F0AD0AF
:1045C0002E2D08D12046E16888477F1C0546022F22
:1045D00046F02006C4DBA069002803DA404246F01A
:1045E0000106A061F00701D026F010066C2D0BD05B
:1045F000682D09D04C2D39D06A2D35D0742D35D089
:104600007A2D33D016E038E0E1682F4620468847FF
:10461000B842054609D16C2F26D04FF48060E1687E
:10462000064320468847054604E06C2F1AD04FF415
:10463000807006430DB3A5F14100192802D820353A
:1046400046F400664A462946204626604E46FBF759
:10465000C9FD80B101280BD0F61D26F0070000F13E
:10466000080956E74020E4E78020D8E70020D6E795
:1046700006F104094DE7284652E7206ABDE8F09F9D
:10468000DE31000010B5431C02E010F8011B71B1CF
:104690008107FAD14FF0013202C88C1A8C4314EA18
:1046A000C211F9D0C01A0A0603D0C01E10BDC01A2C
:1046B00010BD0A0401D0801E10BD0902FCD0401EAE
:1046C00010BD704770477047704709684A0501D5AB
:1046D00040B27047C905FCD500B2704709684A0569
:1046E00001D5C0B27047C905FCD580B270472DE92D
:1046F000F0470D4699469246044600F124080168A9
:10470000880604D5E06921F01001216000E0012055
:10471000A84201DD471B00E00027A1697A1902EBDE
:104720000900081AA0612078C00602D42046FFF7CD
:1047300059FE002608E0D4E901211AF80600904746
:10474000206A401C761C20624E45F4DB2078C006AF
:104750000AD52046FFF746FE06E0D4E901213020C5
:104760009047206A401C2062381EA7F10107F4DC44
:1047700007E0D4E9012118F805009047206A401CA1
:104780002062281EA5F10105F3DC2046FFF740FE5C
:104790002078000602D50220BDE8F0870120FBE763
:1047A00011680268006A530501D508700AE0D30554
:1047B00001D5088006E0130603D5C217C1E900023F
:1047C00000E008600120704770472DE9FF4F0C465C
:1047D0001E464FF0FF378BB0D2E90001DDF8608054
:1047E0000A908A46C1F30A5505B93D46002108469C
:1047F0004FF00000BAF1000F00F4400005DA00EBC2
:1048000080004FF4400101EA50004FEA9059B9F19D
:10481000010F00DDB9460A9850EA4A000ED044F66E
:104820001050A5F2FF3545432F14B8F1000F1ED0EC
:104830007542291E1EDDC9F100021CE0B8F1010F0E
:104840004FF0000001D0302103E0F24305E0215495
:10485000401CB042FBDB30460022002121540B9962
:10486000C1F80880C1E900200FB0BDE8F08FBD1B82
:104870006D1CDEE74A4600DA694206A800F0B6FB86
:1048800006AB93E8070003AB83E8070050460A999C
:1048900000F0B6FC8DE80700A0F500501F3800902E
:1048A0000398002D09DD42F21F014A46084403A97E
:1048B0000390684600F015FF08E0A0F500504A4656
:1048C0001F3803A90390684600F01FFF8DE807001A
:1048D0000004000C03D04FF0FF30410800E0104608
:1048E000B8F1000F03D00022009215461EE0751E9D
:1048F00005D400F0DFFA303262556D1EF9D5B346AB
:104900000122084302D000227F1C04E020783028D6
:1049100001D100227F1E002A099786D01DE0112DAB
:1049200007DA00F0C7FA303262556D1C50EA010216
:10493000F5D1084302D00098C8B10EE00021681EEE
:1049400005E0235C625C63542254401E491C814292
:10495000F7DBAB46A81B401E0990002004F80B00B3
:104960000B98099AC0F80880C0E9002B7CE7112653
:104970004FF0000859E72DE9F04F88460446D21D54
:1049800022F0070191B0D1E90001CDE90A0100F060
:10499000F2FF02460B98C00F01D02D2007E02068DF
:1049A000810701D52B2002E0202101EAC000032A63
:1049B000099001D0072A05DB03464146204600F056
:1049C000BFFA0BE12078800601D5E06900E00620FF
:1049D000B8F1650F814606D0B8F1660F18D0B8F16E
:1049E000670F70D131E00020B9F1110F009001DBA9
:1049F000112301E009F101030AAA01A90CA8FFF79C
:104A0000E4FEDDE90C70002609F10105834647E06C
:104A100001204B4600904FF000470AAA01A90CA8BC
:104A2000FFF7D3FEDDE90DB00C995D46002610B905
:104A300009F101000D18B9EB050003D4C0F1FF36F0
:104A400009F10105A5EB09002BE0B9F1010F01DA2D
:104A50004FF001090020B9F1110F0090484601DD27
:104A6000112300E003460AAA01A90CA8FFF7ADFE36
:104A7000DDE90C704D4600268346207800070AD4F5
:104A8000AB4500DA5D4601A8012D04DD411911F89E
:104A9000011C302907D04F4502DA17F1040F04DA60
:104AA000012082460FE06D1EEEE7002F02DCED1BB9
:104AB0003E4403E0781CA84200DD7D1CB81B00F1D9
:104AC000010A4FF000472078000703D4AA4501DB14
:104AD0004FF0FF3A0021B7F1004F0DF143088DF878
:104AE000431024D002202B23002F01DA7F422D23F4
:104AF0000A21021EA0F1010000DC5FB197FBF1FC6E
:104B000097FBF1F201FB1C7C17460CF1300C08F806
:104B100001CDEEE7A8F1010003702188090501D558
:104B2000452100E06521A0F1010800F8011C099869
:104B30000FA9A1EB0807FF1D00B10120411901EBEE
:104B4000EA70A1693844081A401EA0612078C006A6
:104B500002D42046FFF746FC099828B1D4E9012188
:104B60009047206A401C20622078C00622D520464B
:104B7000FFF738FC1EE0002E04DBB34502DD01A880
:104B8000805D00E03020D4E901219047206A401C7C
:104B90002062761CAAF101005FEA000A0AD100F047
:104BA00085F9C0680168405CD4E901219047206A1A
:104BB000401C2062281EA5F10105DCDC07E0D4E9D9
:104BC000012118F8010B9047206A401C2062381E12
:104BD000A7F10107F3DC2046FFF71AFC032011B010
:104BE00043E6000001694A1C02610878704700B57D
:104BF0008FB0CDE901310021059105497944CDE916
:104C0000031011466846FFF779FC0FB000BD0000A5
:104C1000E5FFFFFF0A6802F8010B0A60704710B554
:104C2000436913B1AFF3008001E0FFF702FC0120FC
:104C300010BD127800F124010A7000224A7001228E
:104C4000EDE711684FF0FF32E9E70000074B70B560
:104C50000D467B44FFF7CBFF0446284600F034FAAC
:104C600010B14FF0FF3070BD204670BD81BDFFFF19
:104C70002DE9FF5F15468A460446DFF8AC80F8440C
:104C80000027D8E900103E46CDE9001010E03AF8C0
:104C900016106A4602A800F01BFA411C07D02178C2
:104CA000890603D5E269391891420DD80744761C6C
:104CB0002078800602D5E069B84205DDAE42E6DB29
:104CC0003AF816000028E2D1A069C01BA061204676
:104CD000FFF788FBD8E90010CDE90010002017E0AD
:104CE0003AF818106A4602A800F0F2F9B0F1FF3F56
:104CF00081460BD000250DF1080B05E0D4E9012118
:104D00001BF8050090476D1C4D45F7D308F10100D5
:104D1000B0428046E4DB206A384420622046FFF738
:104D200077FBBDE8FF9F00007E2A00002DE9F041DF
:104D30008046D21D22F007020025D2E90002F529A3
:104D400015A614D0011E72F1000106DA0023D0EB83
:104D5000030063EB020211A608E0D8F800108B07ED
:104D600001D50FA602E0490701D50EA6012511467F
:104D7000002408F1240704E000F09CF830323A5592
:104D8000641C50EA0102F7D12B46324621464046C8
:104D9000BDE8F041FFF7ABBC000000002D000000B3
:104DA0002B0000002000000030B4002100F124049A
:104DB00008E002F00705D208303542EA4372DB080A
:104DC0006554491C52EA0305F3D10468002310A27C
:104DD000250708D504F020040C4304D0C46901233E
:104DE0000CA2641EC46130BCFFF781BC10B5044640
:104DF00021461068FFF772FC02462046BDE81040CD
:104E00000023D1E7D21D22F00701D1E90023CBE72F
:104E10000000000030000000F0B40D4601880905D4
:104E200002D5214C7C4402E01F4C7C440E3400210E
:104E300000F1240608E002F00F071209E75D42EADC
:104E400003721B097754491C52EA0307F3D1027815
:104E50000023120704D5702D06D009B102231134A6
:104E60002246F0BCFFF743BC01231034F8E770B5CD
:104E700004460D4621461068FFF730FC02462946DD
:104E80002046BDE870400023C6E7D21D22F007038C
:104E9000D3E90023C0E70368126843F020030360EE
:104EA0000823C3610023B7E7E028000000487047EB
:104EB0005007002030B5B0F10A024FEA900E71F1B0
:104EC00000034EEA817EB0EB0E0061EB91014FEAE8
:104ED000101E4EEA017E10EB0E0041EB11114FEA5D
:104EE000102E4EEA016E10EB0E0041EB11214FEA3D
:104EF000104E4EEA014E10EB0E0041EB11414018EE
:104F000041F100014FEAD00040EA41704FEAD1017F
:104F100010EB80054FEA810444EA907444EB0104ED
:104F20006D1944EB0404521BA3414FF0000348BF2A
:104F30000A3200D530BD401C41F1000130BD0000F7
:104F40002DE9F0411F46044603260168072A01F4B3
:104F5000006004DB08B116A505E016A503E008B162
:104F600015A500E015A521F010002060A069C01E65
:104F7000A0610FB1401EA0612046FFF733FA4FB188
:104F8000D4E9012138469047206A401C2062C01CA9
:104F9000206206E0206AFAE7D4E9012115F8010B46
:104FA0009047761EF8D22046FFF732FABDE8F0812E
:104FB0004E414E006E616E00494E4600696E6600BD
:104FC00010B5436913B1AFF3008001E0FFF750FE65
:104FD000012010BD128800F1240182840022C284C5
:104FE0000122EDE711684FF0FF32E9E72DE9F047C4
:104FF000814616468AB0334878440DC88DE80D00C6
:1050000030487844801C03AC0DC884E80D0041F69C
:105010009B300844372190FBF1F290FBF1F5A5F1AC
:10502000800501FB12041B3C02D56442012000E014
:105030000020DFF890A080460027FA44AAF1BE0ABB
:105040000DE0E00709D03246684607EB47010AEB5E
:10505000810100F05AFB8DE8070064107F1C002CD2
:10506000EFD1184F7F44AC3F18E0E80714D007EBAE
:1050700004100DF1180A90E80E008AE80E00C068CE
:10508000F04201D198190890324606A903A800F011
:105090003CFB03AB83E807006D10641C002DE4D1DA
:1050A00032466946B8F1000F03A802D000F019FBA0
:1050B00001E000F02AFBC9E90001C9F808200AB0A4
:1050C000BDE8F08750280000007B00F080007047AA
:1050D00070B516460C46054600F044F8036893F890
:1050E0000101012806D0FF2C0FD8185D68B10120FE
:1050F0002C7070BDD3F807013246214603F2071326
:1051000003442846BDE8704018474FF0FF3070BD9B
:1051100000487047300700207546FFF7F9FFAE469C
:1051200005006946534620F00700854618B020B5B3
:10513000FEF7AEF8BDE820404FF000064FF0000744
:105140004FF000084FF0000B21F00701AC46ACE82F
:10515000C009ACE8C009ACE8C009ACE8C0098D469C
:105160007047000010B5FFF7A1FE001D10BD00BF85
:10517000D10C00000446AFF300802046FBF795F801
:105180004FF0013C50F8042B51F8043B9A4221D1D6
:10519000A2EB0C03934313EACC1317D150F8042B62
:1051A00051F8043B9A4215D1A2EB0C03934313EA46
:1051B000CC130BD150F8042B51F8043B9A4209D17F
:1051C000A2EB0C03934313EACC13DBD04FF00000A7
:1051D000704700BFD01A01BAB1FA81F101F018018D
:1051E00022FA01F0CB40C1F12001DBB2C0B2C01AFB
:1051F0002CFA01F3D11A914311EAC311E6D1704799
:105200005FEA400C08BF91F0000F4FEA8C234FEA91
:10521000C12243EA51514FEA1C5018BF00F5F0403B
:105220004FEA300018BF41F000415FEA6C5C00F0CB
:105230002980BCF1FF3F08BF40F080407047130C4D
:1052400006BF12044FF0100C4FF0000C130E04BFF9
:1052500012020CF1080C130F04BF12010CF1040C24
:10526000930F04BF92000CF1020CD30F04BF520045
:105270000CF1010C11464FF00002A0F11F00A0EB51
:105280000C00704711F0004F08BF704731F000412B
:105290003FF4D5AF0B0C06BF09044FF0100C4FF0D4
:1052A000000C0B0E04BF09020CF1080C0B0F04BF1D
:1052B00009010CF1040C8B0F04BF89000CF1020CE6
:1052C000CB0F04BF49000CF1010CCCF12003A0EB83
:1052D0000C0022FA03F302FA0CF241EA030100F196
:1052E0000100704720F07F4C80EA030023F07F47E5
:1052F000ACEB070303F57C5300F0004003F1FF0320
:105300002DE980494FEA154B09B44FEA144325EAC9
:105310000B4E24EA03480FF2042606EB1327490834
:105320003E785FEA320203FB0667C7F5000707FB1A
:1053300006F64FEA54374FEAD64606F1020607FB57
:10534000066CCCF1005C4FEA1C472CEA074C07FBCB
:1053500006F40CFB06F504EB15464FEA961634BF2F
:1053600000204FF000404FEAD13706FB07FC4FEA20
:105370001C4C0CFB0BF7D21B03FB0CF761EB07017A
:105380000CFB0EF7B0EB074072EB17420CFB08F773
:1053900034BFA2EB0742B2EB074261EB17414FEA81
:1053A0000C444FEA910706FB07FC4FEA1C4C0CFB30
:1053B0000BF7B0EBC74072EB573203FB0CF734BF6F
:1053C000A2EBC742B2EBC74261EB57310CFB0EF7C1
:1053D000B0EBC70072EB57720CFB08F734BFA2EBBF
:1053E000C702B2EBC70261EB5771039F4FEA8161BD
:1053F00041EA921104EBCC044FEAD1374FEA8262C2
:1054000006FB07FC42EA90124FEA80604FEA1C4C10
:105410000CFB0BF7D21B03FB0CF761EB07010CFB3A
:105420000EF7B0EB074072EB17420CFB08F734BFE6
:10543000A2EB0742B2EB074261EB17414FEA8C55F2
:105440004FEA910704EB9C2406FB07FC4FEA1C4C37
:105450000CFB0BF7B0EBC74072EB573203FB0CF7BA
:1054600034BFA2EBC742B2EBC74261EB57310CFB32
:105470000EF7B0EBC70072EB57720CFB08F734BFA6
:10548000A2EBC702B2EBC70261EB577115EB4C25DB
:105490004FEA816141EA92114FEA82624FEAD137C5
:1054A00042EA901206FB07FC44F100044FEA8060D8
:1054B0004FEA1C4C0CFB0BF7D21B03FB0CF761EB08
:1054C00007010CFB0EF7B0EB074072EB17420CFB29
:1054D00008F734BFA2EB0742B2EB074261EB17417A
:1054E00015EB1C154FEA813141EA92414FEA8232B5
:1054F00042EA90424FEA80304FEA0C7644F10004D1
:1055000048EA03434EEA0B484FF0000EB2EB080C9A
:1055100071EB030724BF624639464EEB0E0E4FF087
:10552000000B0018524149414BEB0B0BB2EB080C3E
:1055300071EB03077BF1000B24BF624639464EEB4B
:105540000E0E4FF0000B0018524149414BEB0B0B74
:10555000B2EB080C71EB03077BF1000B24BF624632
:1055600039464EEB0E0E51EA020718BF46F001060F
:1055700016EB0E7655F1000254F1000103D5BDE89B
:105580008901BDE80088BDE88901BDE80048B61979
:10559000524141EB0101A3F10103704780807F7EFE
:1055A0007D7C7B7A79787776767574737271717099
:1055B0006F6E6E6D6C6C6B6A6A696868676666654B
:1055C0006464636362616160605F5F5E5E5D5D5CD9
:1055D0005C5B5B5A5A59595858575756565555554A
:1055E0005454535352525251515050504F4F4F4EAA
:1055F0004E4D4D4D4C4C4C4B4B4B4A4A4A494949F8
:105600004848484747474746464645454544444439
:10561000444343434342424242414141002B26D44A
:10562000770021D01CB54FEA370703B44FF01000C4
:105630004FF010014FF000000FBCBDE810400BF11F
:10564000010BBBF1010F08BF5FEA170722BF12F180
:10565000010211F101014FF0004143F1000300F09C
:10566000004043EA00007047F9D35708DAE746EAFA
:10567000064613F1400F4FEA16461FDD13F1200FC7
:10568000DFBF16430A46002120335B42C8D0C3F176
:10569000200746EA064602FA07F74FEA164646EAA8
:1056A0000706C3F1200722FA03F201FA07F721FAED
:1056B00003F14FF0000342EA0702B1E746EA0206AF
:1056C00046EA06464FEA164646EA0106BCBF46EAE7
:1056D0000646360C4FF000034FF000024FF0000179
:1056E0009EE72DE9C048934630B491E8380007C8DA
:1056F00031EA400C48BF34EA430C03D5FFF7F2FD12
:10570000FFF78CFFF0BCBDE800882DE9C048934648
:1057100030B491E8380007C810F0804F08BF13F08C
:10572000804F03D100F005F8FFF778FFF0BCBDE82B
:10573000008820F07F4780EA030023F07F4C07EBCE
:105740000C03A3F57C5300F00040A3F1FE0392F09C
:10575000000F00F0B38095F0000F00F077802DE986
:1057600001494FEA11404FEA144621EA004800FB84
:1057700006FC24EA064708FB06F607FB08F800FBD0
:1057800007F718EB06484CEB164C4FEA124B18EB98
:1057900007484FEA15464CEB174022EA0B4E0BFB2D
:1057A00006FC25EA06470EFB06F607FB0EFE0BFB82
:1057B00007F71EEB064E4CEB164C4FF000061EEBA7
:1057C000074E4CEB174B18EB0B0840F1000018EBA1
:1057D0000E0B58EB000840F100008F1A4FF000014B
:1057E0003CBFC943661B14BFB5EB040C00213CBF92
:1057F000C943F61B4FEA17444EEA8E0E27EA0445CA
:105800004FEA1C4704FB07622CEA074C05FB07F72D
:105810000CFB05F604FB0CFC16EB074642EB1742AB
:1058200016EB0C4642EB1C421BEB060658EB020241
:10583000414146EA9E0601D5BDE80189B6195241AB
:1058400041EB0101A3F10103BDE801894FEA1445D1
:105850004FEA114724EA054621EA074C05FB07F405
:1058600006FB07F70CFB06F105FB0CFC11EB0741EF
:1058700044EB17444FEA124711EB0C4144EB1C4434
:1058800022EA074C05FB07F206FB07F70CFB06F6BE
:1058900005FB0CFC16EB074642EB174216EB0C46D9
:1058A00042EB1C456A1854F1000148BF7047B61915
:1058B000524141EB0101A3F10103704795F0000F44
:1058C00037D04FEA11424FEA144721EA024624EA50
:1058D000074C02FB07F106FB07F70CFB06F402FB83
:1058E0000CFC14EB074441EB17414FEA154714EB4E
:1058F0000C4441EB1C4125EA074C02FB07F506FB73
:1059000007F70CFB06F602FB0CFC16EB074645EB13
:10591000174516EB0C4645EB1C42121951F10001DC
:1059200048BF7047B619524141EB0101A3F1010391
:1059300070474FEA14454FEA114724EA054621EA29
:10594000074C05FB07F106FB07F70CFB06F24FF0CF
:10595000000605FB0CFC12EB074241EB174112EB72
:105960000C4251EB1C4148BF7047921841EB0101BA
:10597000A3F101037047490050EAC12018BF042079
:105980004A0D18BF40F0010040F2FF72B2EB515FC8
:1059900008BF40F00200012808BF052070472DE92C
:1059A000F0414F1E00EBC7010446D1E90001154646
:1059B0001E4637F006020DD02A46334600F0A8FCFA
:1059C0007F1E04EBC703D3E9002300F081FA37F010
:1059D0000602F1D1022F25D0042F13D0062F18BFB5
:1059E000BDE8F0812A46334600F092FCD4E90A2350
:1059F00000F06EFA2A46334600F08AFCD4E9082308
:105A000000F066FA2A46334600F082FCD4E9062309
:105A100000F05EFA2A46334600F07AFCD4E904230B
:105A200000F056FA2A46334600F072FCD4E902230D
:105A300000F04EFA2A46334600F06AFCD4E900230F
:105A4000BDE8F04100F044BA012201F0FEB900F0D7
:105A50003FBA0000024A0020110701F0F6B9000029
:105A600001FDFFFF30380A2801D2012070470020D5
:105A7000704700002DE9F84F04460D4621F0004024
:105A800000917349814211DC7249884201DC06D1E0
:105A90002CB120462946BDE8F84FFFF7D5BF6E4828
:105AA000002DCCBF6D496E49BDE8F88F6D4981422C
:105AB00011DD6D498142D8BF4FF0FF366DDD2046C4
:105AC0002946FFF758FF042808BFFFF7C3FF204609
:105AD0002946BDE8F88F6549654F25F000458142AC
