:020000040800F2
:10000000C80D002019300008A90C0008AB0C00082E
:10001000AF0C0008B30C0008B70C0008000000008B
:10002000000000000000000000000000BB0C000801
:10003000BD0C000800000000BF0C0008C10C000847
:100040003330000833300008333000083330000804
:1000500033300008333000083330000833300008F4
:1000600033300008333000083330000833300008E4
:1000700033300008333000083330000833300008D4
:1000800033300008333000083330000833300008C4
:10009000333000083330000833300008793D000861
:1000A0003330000813730008333000083330000881
:1000B0006B72000833300008DD3700083330000869
:1000C0003330000833300008333000083330000884
:1000D000333000080D0C0008CF350008333000081D
:1000E0003330000833300008333000083330000864
:1000F0003330000833300008333000083330000854
:100100003330000833300008333000083330000843
:100110003330000833300008333000083330000833
:100120003330000833300008333000083330000823
:1001300000F002F800F0B0F80AA090E8000C824449
:100140008344AAF10107DA4501D100F0A5F8AFF226
:10015000090EBAE80F0013F0010F18BFFB1A43F0A5
:1001600001031847D8BA0000F8BA00000A444FF05B
:10017000000C10F8013B13F0070408BF10F8014B06
:100180001D1108BF10F8015B641E05D010F8016B4B
:10019000641E01F8016BF9D113F0080F1EBF10F8AF
:1001A000014BAD1C0C1B09D16D1E58BF01F801CBD2
:1001B000FAD505E014F8016B01F8016B6D1EF9D555
:1001C0009142D6D37047000000230024002500266A
:1001D000103A28BF78C1FBD8520728BF30C148BFAA
:1001E0000B6070476E2907F0CB83702907F0B5814B
:1001F00066290AF06E8165290AF06B8167290AF089
:1002000068816129AFF3008003681B0A28BF41F0B1
:100210008001692907F02681642907F02381752967
:1002200007F020816F2907F0C384782907F08181C6
:10023000E92907F05D84E42907F05A84F52907F0DD
:100240005784EF2907F0C084F82907F080810368FC
:10025000DB0928BF41F08001632907F0CC837329B3
:1002600007F0D183E32907F03B87F32907F04087A4
:10027000002070471FB507F0BDFF040000200021DB
:1002800009F034F8401C60600020002109F018F8E3
:10029000E0601FBD10B510BD07F07EFF1146FFF7EF
:1002A000E9FF00F009F808F057F803B4FFF7F2FF90
:1002B00003BC00F0F9FB000000BF00F075FA4FF43A
:1002C000A06000F0FFFC00F0D9FA00F018FB02F08B
:1002D0005FFF142003F085FC06F05AFF00BF03F017
:1002E0009FFA0028FBD141F61F4140F2E73006F0AB
:1002F000E3FFFC480068FC49086016E0B42002F007
:1003000015FFFA49086008460168F94802F0A4FEA2
:10031000054609F00BFFF74908600846006809F038
:10032000C9FE0546002100F094FBEE480068EE4946
:100330000968401A0228E1DB0020EF490880091D06
:100340000880091D0880091D088020E2EB4800880C
:1003500000F4004000284DD0E84804780020E84927
:100360000855E6490880E64800783038642148435B
:10037000E349497830390A2202FB0101E0488078DC
:1003800030380844DF4908600846006864282DD0EA
:1003900008460068BE2829D008460068B42825D041
:1003A00008460068B0F5877F20D0084600686F28AF
:1003B0001CD00846006840F2E731884216D0D14888
:1003C000006840F24D11884210D0CE480068B0F568
:1003D000DE7F0BD0CB48006840F22B21884205D04D
:1003E000C848006840F29A21884203D1C548006895
:1003F000C5490860C5480068C0F102004FF47A7131
:100400004843C349D1F83411C1F1020101EBC102E3
:1004100002EB011100EB8100BC4908310968C1F110
:10042000020101EB810100EB4100B8490C31096880
:10043000C1F102010844B74908600846006840F26B
:10044000574188421BD0B04800686F2817D1B24886
:100450000068A0B90CE0AF480168B0A003F0A2F9B1
:10046000B0480068401CAF4908600A2000F0D9F984
:10047000AC480068C828EEDB0120A7490860A24804
:1004800040F24D120168881A91427CD00DDCB429EB
:100490004CD004DC642915D06F292CD180E0BE2912
:1004A0002AD0B1F5877FF8D15AE06F286CD0DE28CA
:1004B0006BD0A0F24D10002868D0A0F24D1000289B
:1004C000EBD177E0002002F031FE88490860084651
:1004D0000168874802F0C0FD054609F027FE8549FE
:1004E00008600846006809F0E5FD05468E48016889
:1004F000284600F0AEFA49E15A2002F017FE7B4987
:100500000860084601687A4802F0A6FD054609F031
:100510000DFE784908600846006809F0CBFD0546E5
:1005200081480168284600F094FA2FE1B42002F0D7
:10053000FDFD6E490860084601686D4802F08CFDBB
:10054000054609F0F3FD6B4908600846006809F0AC
:10055000B1FD054674480168284600F07AFA15E1B5
:100560004FF4877002F0E2FD6049086008460168B8
:100570005F4802F071FD054609F0D8FD5D4908604D
:100580000846006803E026E052E07EE0D0E009F093
:1005900091FD054664480168284600F05AFAF5E0E6
:1005A000002055490880091D0880091D0880091D83
:1005B0000880EBE04FF400715C4800F0C0FFFA20C7
:1005C00000F02FF94FF40071584800F0BAFFFA20FC
:1005D00000F027F9DAE0434800684349086016E074
:1005E000002002F0A3FD4149086008460168404828
:1005F00002F032FD054609F099FD3E4908600846C3
:10060000006809F057FD0546002100F022FA354840
:10061000006835490968401A0228E1DB00203649A4
:100620000880091D0880091D0880091D0880ADE0AB
:100630002C4800682C49086016E05A2002F076FD2C
:100640002A49086008460168294802F005FD054668
:1006500009F06CFD274908600846006809F02AFD8A
:100660000546002100F0F5F91E4800681E4909689A
:10067000401A0228E1DB00201F490880091D08807C
:10068000091D0880091D088080E016480068164989
:10069000086016E0B42002F049FD144908600846DD
:1006A0000168134802F0D8FC054609F03FFD1149E6
:1006B00008600846006809F0FDFC0546002100F0CE
:1006C000C8F90848006808490968401A0228E1DBAF
:1006D000002009490880091D0880091D0880091D9E
:1006E000088053E0C00500202C00002030000020CE
:1006F0000000002034000020340400405805002091
:10070000900600203C00002038000020308121426B
:1007100000802142440000204C00002025640D0A86
:10072000000000004800002050000020000C0140A4
:10073000174800681749086017E04FF4877002F007
:10074000F5FC1549086008460168144802F084FC6D
:10075000054609F0EBFC124908600846006809F0FC
:10076000A9FC0546002100F074F909480068094910
:100770000968401A0228E0DB00200A490880091DA8
:100780000880091D0880091D088000BF00BFDDE545
:10079000C00500202C0000203000002000000020B8
:1007A000340000203404004010B56FF0040000F065
:1007B000D8FA2E4800682E49B0FBF1F02D49087098
:1007C0000846007800EB4001C1EBC0104FF6FF7106
:1007D00001EAC0002849088010BD0146254A127868
:1007E0004A434FF0E0235A6100229A611A46126987
:1007F00042F001021A6100BF4FF0E022106900F0E0
:1008000001021AB100F48032002AF5D04FF0E02244
:10081000126922F001024FF0E0231A6100229A616E
:1008200070470146144A12884A434FF0E0235A6148
:1008300000229A611A46126942F001021A6100BF51
:100840004FF0E022106900F001021AB100F480328A
:10085000002AF5D04FF0E022126922F001024FF099
:10086000E0231A6100229A61704700008000002096
:1008700000127A00540000205600002008B5012123
:100880000C2000F0EBFCC020ADF8000018208DF823
:10089000030003208DF8020069467D4800F0A2FDA8
:1008A0000320ADF8000018208DF8030003208DF818
:1008B00002006946774800F095FD4FF40070ADF8EE
:1008C000000010208DF8030003208DF80200694617
:1008D000704800F087FD4FF400716E4800F031FE63
:1008E0004FF47040ADF8000048208DF8030003205D
:1008F0008DF802006946674800F074FD08BD00B538
:1009000087B00121022000F0B6FC40F2E730ADF8DC
:1009100014004720ADF810000020ADF81600ADF827
:10092000120004A95C4801F081F96020ADF80000D4
:100930000120ADF802000020ADF80800ADF8060077
:100940006946554801F0AFF90821534801F0FAFD16
:100950000020ADF8060069464F4801F0E6F908218D
:100960004D4801F0F8FD0020ADF8060069464A4800
:1009700001F028FA0821484801F0FAFD0020ADF8FE
:1009800006006946444801F068FA0821424801F02F
:10099000F8FD0121404801F0A5FD01213E4801F08C
:1009A000A1FC07B000BD70B505460C46002D12DB5A
:1009B0003A48007858B90020374934310880091D79
:1009C00008800120FFF72DFF0120344908703249CB
:1009D00038310D8013E03148007801280BD1002018
:1009E0002D4934310880091D08800120FFF719FFC7
:1009F00000202A4908706842274934310880002CB9
:100A000012DB2748007858B9002023493C31088080
:100A1000091D08800120FFF704FF0120204908700C
:100A20001D4940310C8013E01D48007801280BD18E
:100A3000002019493C310880091D08800120FFF77A
:100A4000F0FE002016490870604213493C310880CE
:100A500070BD2DE9F04104460F463D1B3E1915F5CA
:100A60007A7F00DA0F4DB5F57A7F01DD4FF47A75A4
:100A700016F57A7F00DA0B4EB6F57A7F01DD4FF47A
:100A80007A7631462846FFF78EFFBDE8F0810000F8
:100A900000080140000C0140000400405800002004
:100AA0005900002018FCFFFF014600BF704700BF3F
:100AB000744A128802F04002002AF9D0C2B2714B87
:100AC0001B1D1A80704710B586B00446012144F200
:100AD000040000F0C3FB4FF40070ADF814000320D5
:100AE0008DF8160018208DF8170005A9664800F04B
:100AF00079FC4FF48060ADF8140004208DF81700E5
:100B000005A9614800F06EFC25208DF80000032047
:100B10008DF801008DF8020001208DF80300684671
:100B200000F0D5F801940020ADF80800ADF80A00F7
:100B3000ADF80C00ADF810000C20ADF80E0001A9C6
:100B4000504801F0F0FE012240F225514D4801F0DD
:100B500082FF01214B4801F072FF06B010BD2DE964
:100B6000F04786B0824600BF9AF80410A1F1300029
:100B700008F00CFE0646454A454B08F031FE80461B
:100B800089469AF80510A1F1300008F0FFFD0646ED
:100B9000404A414B08F024FE42464B46CDE9040151
:100BA00008F0ECFB04460D469AF801103039642237
:100BB00001FB02F008F0EAFDCDE904019AF8021009
:100BC000303901EB8101480008F0E0FD06460F4690
:100BD0009AF80310A1F1300008F0D8FD80462246B3
:100BE0002B4608F0CBFB32463B46CDE9000108F02E
:100BF000C5FBCDE90201DDE9042308F0BFFB044693
:100C00000D462046294606B0BDE8F08770B540F293
:100C100025511C4802F004F8002832D040F225513A
:100C2000184802F027F8174801F07AFFC5B2202DC6
:100C300000D130252E2D24D0002405E01749601C5A
:100C4000085C0855601CC4B2052CF7DD134885719B
:100C50000078682808D111488079762804D10F4897
:100C6000FFF77DFF0E4A03C20C4800787A2808D1AE
:100C70000A488079762804D10848FFF770FF094AAE
:100C800003C270BD00380140000801409A9999994B
:100C90009999B93F7B14AE47E17A843F76000020F2
:100CA0006000002068000020704700BFFEE700BF22
:100CB000FEE700BFFEE700BFFEE7704770477047E2
:100CC0007047000031490143314A1160704770B5E7
:100CD000002100230F22C47804B32D4C246804F4AF
:100CE000E064C4F5E064210AC1F10403CA40447819
:100CF00004FA03F18478144021430901254C067855
:100D0000A155047804F01F050124AC4005786D114D
:100D1000AD0005F1E025C5F8004109E0047804F0D4
:100D20001F050124AC401C4D0678761145F826407D
:100D300070BD1A4A0A400243154B1B1F1A607047C8
:100D400039B1134A121D12680243114B1B1D1A6060
:100D500006E00F4A121D126882430D4B1B1D1A60DC
:100D60007047042808D14FF0E021096941F00401DF
:100D70004FF0E022116107E04FF0E021096921F016
:100D800004014FF0E0221161704700000000FA05F5
:100D90000CED00E000E400E080E100E080FFFF1FD8
:100DA0000CB50020019000906C48006840F4803041
:100DB0006A49086000BF6948006800F4003000908C
:100DC0000198401C0190009818B90198B0F5A06FE7
:100DD000F1D16248006800F4003010B101200090A9
:100DE00001E0002000900098012843D15C48006891
:100DF00040F010005A4908600846006820F00300DF
:100E000008600846006840F00200086053484068E7
:100E1000524948600846406848600846406840F4C7
:100E2000806048600846406820F47C1048600846AE
:100E3000406840F4E81048600846006840F0807060
:100E4000086000BF4548006800F000700028F9D035
:100E50004248406820F00300404948600846406826
:100E600040F00200486000BF3C48406800F00C00C1
:100E70000828F9D10CBD10B5FFF792FF10BD10B5D1
:100E80003648006840F00100344908600846406870
:100E900034490840314948600846006832490840F2
:100EA0002E4908600846006820F480200860084643
:100EB000406820F4FE0048604FF41F008860FFF790
:100EC000DAFF4FF000602949086010BD10B500211D
:100ED00000200022214B5B6803F00C0121B10429A2
:100EE00006D0082928D107E0214B224C236027E0B7
:100EF0001F4B204C236023E0184B5B6803F47010F9
:100F0000164B5B6803F48032022303EB904022B956
:100F1000194B4343174C23600DE0104B5B6803F4FF
:100F2000003323B1144B4343124C236003E0104BB6
:100F30004343104C236003E00D4B0E4C236000BF75
:100F400000BF064B5B68C3F303130C4CE15C094B19
:100F50001B68CB40074C236010BD0000001002400E
:100F6000002002400000FFF8FFFFF6FE08ED00E061
:100F700000127A008000002000093D00840000205B
:100F8000DF48006840F00100DD490860084640681D
:100F9000DC490840DA49486008460068DA490840F8
:100FA000D74908600846006820F480200860084699
:100FB000406820F4FE0048604FF41F0088607047CE
:100FC000CF49096821F48031CD4A11601146096882
:100FD00021F480211160B0F5803F03D0B0F5802F5F
:100FE0000ED106E0C649096841F48031C44A116057
:100FF00007E0C349096841F4A021C14A116000E03B
:1010000000BF00BF704710B501460022002300203A
:101010004A11012A02D1BA4C236806E0022A02D101
:10102000B74C236A01E0B64C636A01F01F02012449
:1010300094401C400CB1012000E0002010BD38B5E8
:10104000002000900024002500BF3120FFF7DBFFC7
:1010500005460098401C00900098B0F5A06F01D0A4
:10106000002DF2D03120FFF7CEFF08B1012400E0BF
:101070000024204638BD01460020A14A106820F017
:10108000F80040EAC10010607047A049086070474E
:10109000024600209A4B586820F47C1042EA010373
:1010A0001843974B58607047984908667047014647
:1010B0000020934A506820F00300084350607047B6
:1010C0008F48406800F00C007047014600208C4AB1
:1010D000506820F0F000084350607047014600203F
:1010E000874A506820F4E06008435060704701462A
:1010F0000020834A506820F4605040EAC1005060EC
:10110000704729B17E4A527A02437D4B5A7204E0FD
:101110007B4A527A82437A4B5A7270477B49D83164
:101120000860704701460020754A506820F440402E
:101130000843506070470021714A20321170704A94
:1011400082F82010012802D004280AD104E00121ED
:101150006B4A2032117005E00521694A2032117076
:1011600000E000BF00BF70476949086070476449EC
:10117000096A0143624A116270476549443908604F
:10118000704730B500210022002400235C4D6D68BB
:1011900005F00C0121B1042905D0082923D105E06F
:1011A0005C4D056022E05B4D05601FE0544D6D68AD
:1011B00005F47012524D6D6805F48034022505EB7C
:1011C00092421CB9544D554305600BE04C4D6D687F
:1011D00005F400351DB1504D5543056002E04D4DFD
:1011E0005543056002E04B4D056000BF00BF444D14
:1011F0006D6805F0F0010909484D6B5C0568DD403C
:1012000045603F4D6D6805F4E061090A434D6B5C34
:101210004568DD4085603A4D6D6805F46051C90A46
:101220003E4D6B5C4568DD40C560354D6D6805F42D
:101230004041890B3A4D6B5CC568B5FBF3F5056120
:1012400030BD29B12E4A526902432D4B5A6104E048
:101250002B4A526982432A4B5A61704729B1284A66
:1012600092690243264B9A6104E0254A92698243BF
:10127000234B9A61704729B1214AD2690243204B1E
:10128000DA6104E01E4AD26982431D4BDA6170477D
:1012900029B11B4AD2680243194BDA6004E0184AAC
:1012A000D2688243164BDA60704729B1144A12693A
:1012B0000243134B1A6104E0114A12698243104B36
:1012C0001A61704712494039086070470F49C86475
:1012D00070470B49C87170470948406A40F08070F8
:1012E00007494862704701460020054A92680A4053
:1012F0000AB1012000E00020704701498872704760
:10130000001002400000FFF8FFFFF6FE000042421E
:101310008004424200127A0000093D00940000203F
:10132000A400002010B50446CC48844208D1012115
:101330000420FFF7ADFF00210420FFF7A9FF46E0DE
:10134000C748844208D101210820FFF7A1FF0021EE
:101350000820FFF79DFF3AE0C248844208D10121EE
:101360001020FFF795FF00211020FFF791FF2EE0DE
:10137000BD48844208D101212020FFF789FF0021C8
:101380002020FFF785FF22E0B848844208D10121E0
:101390004020FFF77DFF00214020FFF779FF16E096
:1013A000B348844208D101218020FFF771FF00215A
:1013B0008020FFF76DFF0AE0AE48844207D101218B
:1013C0008015FFF765FF0021A015FFF761FF10BD35
:1013D00010B501210846FFF75BFF00210120FFF750
:1013E00057FF10BD2DE9F0410246002500260020E0
:1013F00000230024002791F803C00CF00F0591F89A
:1014000003C00CF0100CBCF1000F03D091F802C027
:101410004CEA050591F800C0BCF1000F31D014680A
:1014200000202BE04FF0010C0CFA00F3B1F800C0E3
:101430000CEA03069E4220D183004FF00F0C0CFAF9
:1014400003F7BC4305FA03FC4CEA040491F803C01B
:10145000BCF1280F06D14FF0010C0CFA00FCC2F8C9
:1014600014C00AE091F803C0BCF1480F05D14FF059
:10147000010C0CFA00FCC2F810C0401C0828D1D3A3
:101480001460B1F800C0BCF1FF0F34DD54680020D7
:101490002EE000F1080C4FF0010808FA0CF3B1F847
:1014A00000C00CEA03069E4221D183004FF00F0CCE
:1014B0000CFA03F7BC4305FA03FC4CEA040491F868
:1014C00003C0BCF1280F05D100F1080C08FA0CF894
:1014D000C2F8148091F803C0BCF1480F07D100F1A5
:1014E000080C4FF0010808FA0CF8C2F81080401CF4
:1014F0000828CED35460BDE8F0814FF6FF7101801B
:10150000022181700421C170704702460020936857
:101510000B400BB1012000E00020704701468868B5
:1015200080B2704702460020D3680B400BB1012007
:1015300000E0002070470146C86880B27047016132
:101540007047416170470AB1016100E04161704735
:10155000C16070474FF480320A43826181618261C9
:1015600082698269704702460020434B18684FF633
:101570008073184040EA021008433F4B18607047E0
:101580003E49C8617047F0B50A4600230024002197
:10159000002500F00046B6F1004F02D1364EF16949
:1015A00001E0354E7168C0F3034583B200F4401684
:1015B000B6F5401F08D121F070612F4E766826F0F5
:1015C00070662D4F7E6012E000F48016B6F5801F25
:1015D00006D1032606FA05F4A14341F0706106E046
:1015E000460D360103FA06F6B14341F0706122B1AF
:1015F000460D360103FA06F6314300F00046B6F117
:10160000004F02D11C4EF16101E01B4E7160F0BD34
:1016100030B500228B071C0F0F2303FA04F2164B80
:1016200008338C1053F824309343134C08348D1036
:1016300044F8253023468C1053F824308C07240FAF
:1016400000FA04F423430C4C08348D1044F8253080
:1016500030BD0A49DC3108607047000000080140D5
:10166000000C01400010014000140140001801402E
:10167000001C014000200140000001400000204209
:1016800010B50446F748844209D101214805FFF707
:101690000CFE00214FF40010FFF707FE08E00121C7
:1016A0008805FFF702FE00214FF48000FFF7FDFDE3
:1016B00010BD2DE9F04385B004460D460026B14625
:1016C0000427DFF8A483A6884FF6C070064068465A
:1016D000FFF757FDDDF80880E448B8FBF0F01FFA8B
:1016E00080F946EA0906A68020884FF6FE71084078
:1016F00020800026DE49286888420CD828684000EF
:10170000B8FBF0F087B2042F00DA04273E4309F15A
:101710000100208427E0E8884BF6FF71884206D15B
:10172000286800EB4000B8FBF0F087B209E02868B9
:1017300000EBC00101EB0010B8FBF0F087B247F4FA
:101740008047C7F30B0008B947F0010747F4004092
:1017500006434FF4967009FB00F04FF47A7190FB4A
:10176000F1F0401C2084A683208840F001002080F6
:1017700026884FF6F5300640A88869890843064355
:101780002680A88929890843208105B0BDE8F08317
:1017900041F288310160002181804BF6FF71C180E8
:1017A0000021018141814FF480418181704721B145
:1017B000028842F00102028004E002884FF6FE73C4
:1017C0001A400280704721B1828842F40062828010
:1017D00004E082884FF2FF731A408280704721B183
:1017E000828842F48052828004E082884EF6FF7341
:1017F0001A408280704721B1028842F480720280D0
:1018000004E002884FF6FF631A400280704721B15E
:10181000028842F40072028004E002884FF6FF530F
:101820001A400280704721B1028842F4806202802F
:1018300004E002884FF6FF331A40028070470A46E0
:10184000002181894FF60173194002F0FE0319430C
:101850008181704721B1828942F00102828104E0D6
:1018600082894FF6FE731A408281704721B1028847
:1018700042F04002028004E002884FF6BF731A4033
:10188000028070471AB183880B43838002E083880B
:101890008B4383807047018270470146088AC0B23B
:1018A000704712B141F0010102E04FF6FE7319409A
:1018B0000182704708B5024600200090009200980F
:1018C000084400900098008808BD21B1028842F4C5
:1018D0000042028003E00288C2F30E0202807047D9
:1018E000B1F5006F04D1028842F40062028004E086
:1018F00002884FF2FF731A4002807047B1F5005F13
:1019000004D1028842F40052028004E002884DF6BD
:10191000FF731A400280704721B1028842F480525E
:10192000028004E002884EF6FF731A40028070477E
:10193000B1F5006F04D1028842F40062028004E035
:1019400002884FF2FF731A400280704721B102886B
:1019500042F02002028004E002884FF6DF731A4052
:10196000028070470146088B0012704721B102883F
:1019700042F01002028004E002884FF6EF731A4032
:101980000280704721B9028842F08002028004E0A0
:1019900002884FF67F731A4002807047B1F5804F7E
:1019A00005D0828B4BF6FF731A40828303E0828B53
:1019B00042F480428283704770B5024600240025BD
:1019C00000230020958A138B1B0445EA030626F0AA
:1019D0007F4404EA01068E4201D1012000E000208C
:1019E00070BD10B501460020002300228B8A0A8BAF
:1019F000120443EA020424F07F4010BD0CB50246F5
:101A0000002000230193009300920B0F019321F01B
:101A10007F41019B1BB1009B1433009303E0090C31
:101A2000009B18330093009B1B680B400BB10120F7
:101A300000E000200CBD002221F07F42D3438382CE
:101A4000704730B5024600200023948801F0E0651D
:101A500004EA154321F07F41948A0C4054B14BB104
:101A6000012008E00054004000127A0040420F00BC
:101A7000A0860100002030BD002221F07F42D34328
:101A80008382704710B50446FE48844208D1012184
:101A9000C014FFF7FDFB0021E014FFF7F9FBC4E0E1
:101AA000B4F1804F08D101210846FFF7FEFB002169
:101AB0000120FFF7FAFBB8E0F348844208D1012186
:101AC0000220FFF7F2FB00210220FFF7EEFBACE063
:101AD000EE48844208D101210420FFF7E6FB0021F3
:101AE0000420FFF7E2FBA0E0E948844208D101218D
:101AF0000820FFF7DAFB00210820FFF7D6FB94E06F
:101B0000E448844208D101211020FFF7CEFB0021D8
:101B10001020FFF7CAFB88E0DF48844208D101218A
:101B20002020FFF7C2FB00212020FFF7BEFB7CE056
:101B3000DA48844208D101214014FFF7A9FB0021B3
:101B40006014FFF7A5FB70E0D548844209D101215C
:101B5000C804FFF79DFB00214FF40020FFF798FB1E
:101B600063E0D048844209D101210805FFF790FBCA
:101B700000214FF48010FFF78BFB56E0CA488442E7
:101B800009D101214805FFF783FB00214FF4001024
:101B9000FFF77EFB49E0C548844208D1012140207F
:101BA000FFF783FB00214020FFF77FFB3DE0C048AB
:101BB000844208D101218020FFF777FB002180209B
:101BC000FFF773FB31E0BB48844208D10121801547
:101BD000FFF76BFB0021A015FFF767FB25E0B64878
:101BE000844209D101210804FFF752FB00214FF480
:101BF0008030FFF74DFB18E0B048844209D1012145
:101C00004804FFF745FB00214FF40030FFF740FB8D
:101C10000BE0AB48844208D101218804FFF738FB70
:101C200000214FF48020FFF733FB10BD0022028813
:101C3000944B98420ED0994B98420BD0B0F1804F04
:101C400008D0914B984205D0904B984202D0904BCF
:101C5000984204D14FF68F731A404B881A438D4B2C
:101C6000984207D08C4B984204D04FF6FF431A405D
:101C7000CB881A4302808B8883850B880385814B30
:101C800098420BD0854B984208D08B4B984205D098
:101C90008A4B984202D08A4B984201D10B7A038634
:101CA00001238382704770B5002400220023058C35
:101CB0004FF6FE7635400584028C8388048B4FF600
:101CC0008F752C40B51E2C400D882C43751E2A4064
:101CD0000D892A434D882A436A4DA8420BD06F4D87
:101CE000A84208D0744DA84205D0744DA84202D035
:101CF000734DA84213D14FF6F7752A404D892A43F8
:101D00004FF6FB752A408D882A434FF6FF652B401E
:101D10004FF6FF552B408D892B43CD892B43838074
:101D20000483CD888586028470BD70B500240022AE
:101D30000023058C4FF6EF7635400584028C8388AE
:101D4000048B48F6FF752C404FF6FF452C400D885C
:101D50004FF6FF7606EA05252C434FF6DF752A403D
:101D60000D8906EA05152A434D8806EA05152A431A
:101D7000444DA84202D0494DA8421DD14FF67F756F
:101D80002A404D894FF6FF7606EA05152A434FF69D
:101D9000BF752A408D8806EA05152A434FF6FF35A0
:101DA0002B404FF2FF752B408D8906EA85052B43AA
:101DB000CD8906EA85052B4383800483CD8805877A
:101DC000028470BD70B5002400220023058C4FF6FC
:101DD000FF6635400584028C8388848B4FF68F75AF
:101DE0002C404FF6FC752C400D882C434FF6FF55C8
:101DF0002A400D894FF6FF7606EA05252A434D88CD
:101E000006EA05252A431F4DA84202D0234DA842C9
:101E10001DD14FF2FF752A404D894FF6FF7606EA35
:101E200005252A434FF6FF352A408D8806EA052509
:101E30002A434EF6FF752B404DF6FF752B408D89DA
:101E400006EA05152B43CD8906EA05152B43838049
:101E50008483CD888587028470BD70B500220023FD
:101E60000024058C4EF6FF7635400584038C84886B
:101E7000828B48F6FF752A404FF6FF452A400D88B1
:101E800020E00000002C0140000400400008004059
:101E9000000C0040001000400014004000340140DD
:101EA000004C014000500140005401400018004027
:101EB000001C004000200040004001400044014060
:101EC000004801404FF6FF7606EA05252A434DF605
:101ED000FF752B400D8906EA05352B434D8806EA30
:101EE00005352B43FA4DA84202D0FA4DA84208D13D
:101EF0004BF6FF752C408D894FF6FF7606EA851567
:101F00002C4384808283CD88A0F84050038470BD28
:101F1000828B4FF2FF331A408283828B4FF6FF731E
:101F200003EA01231A4382837047F0B50C46154635
:101F3000002200210026078C4EF6FF7C07EA0C07E2
:101F40000784828B018C4FF6FF7707EA043640F650
:101F5000FF473A404FF6FF7707EA05273A434FF627
:101F6000FF7707EA03373A43D94FB8420ED0D94F2B
:101F7000B8420BD0B0F1804F08D0D74FB84205D04F
:101F8000D64FB84202D0D64FB84206D14DF6FF77B1
:101F9000394046F48057394305E047F6FF5739404A
:101FA00044F48057394382830184F0BD828B4FF61D
:101FB000F3731A408283828B0A4382837047F0B5A1
:101FC0000C461546002200210026078C4FF6FF6CB8
:101FD00007EA0C070784828B018C4FF6FF7707EA2C
:101FE00004264FF60C773A404FF6FF7707EA0317BF
:101FF0002F433A43B64FB8420ED0B64FB8420BD03B
:10200000B0F1804F08D0B44FB84205D0B34FB842BA
:1020100002D0B34FB84206D14FF6FF57394046F4CD
:102020008077394305E04FF2FF57394044F4807719
:10203000394382830184F0BD028B4FF2FF331A4093
:102040000283028B4FF6FF7303EA01231A430283D4
:102050007047F0B50C461546002200210026078C7B
:102060004FF6EF7C07EA0C070784028B018C4FF6D2
:10207000FF7707EA041640F6FF473A404FF6FF772E
:1020800007EA03373A434FF6FF7707EA05273A4353
:102090008F4FB8420ED08F4FB8420BD0B0F1804F67
:1020A00008D08D4FB84205D08C4FB84202D08C4F2B
:1020B000B84206D14FF6DF77394046F01007394372
:1020C00005E04FF65F77394044F01007394302834B
:1020D0000184F0BD028B4FF6F3731A400283028B2A
:1020E0000A4302837047F0B50C46154600220021D2
:1020F000068C4FF6FE773E400684028B018C4FF62D
:102100000C7632407E1C06EA03162E433243704E94
:10211000B0420ED06F4EB0420BD0B0F1804F08D01D
:102120006D4EB04205D06D4EB04202D06C4EB04202
:1021300006D14FF6FD76314044F00106314305E00B
:102140004FF6F576314044F00106314302830184B5
:10215000F0BD70B505460C465D4885420ED05D4821
:1021600085420BD0B5F1804F08D05B48854205D041
:102170005A48854202D05A48854200D100E000BF4B
:10218000208850B92389A28861882846FFF7ABFFD1
:10219000E1882846FFF79EFF25E0208804280AD121
:1021A0002389A28861882846FFF753FFE1882846E3
:1021B000FFF742FF17E0208808280AD12389A28868
:1021C00061882846FFF7FBFEE1882846FFF7EEFE10
:1021D00009E02389A28861882846FFF7A6FEE188E6
:1021E0002846FFF795FE70BD2DE9F04105460C46E7
:1021F00000260127608808B9022600E00026A08892
:10220000012801D1022700E001272088A0B92389F5
:10221000A28861882846FFF766FFE1882846FFF715
:1022200059FF23893A4631462846FFF712FFE188D5
:102230002846FFF701FF13E02389A288618828461A
:10224000FFF707FFE1882846FFF7F6FE23893A46A5
:1022500031462846FFF747FFE1882846FFF73AFF57
:10226000BDE8F0810A884B881A438B881A43CB88D3
:102270001A430B891A434B891A438B891A43A0F8D6
:10228000442070474FF6FF71818000210180C1809A
:102290004180017270470021018041808180C180AE
:1022A000018141818181C18170470021018041808C
:1022B000012181800021C1800181704700210180BE
:1022C00041808180C180018141818181704700000E
:1022D000002C014000340140000400400008004090
:1022E000000C004021B1028842F00102028004E0AB
:1022F00002884FF6FE731A400280704731B1B0F881
:10230000442042F40042A0F8442005E0B0F8442004
:10231000C2F30E02A0F8442070471AB183890B4320
:10232000838102E083898B43838170478182704778
:1023300041EA0203A0F8483070471AB183890B4381
:10234000838102E083898B438381704701894FF643
:10235000F8721140018170470A46002101894FF649
:102360008F73194011430181704730B504460D4603
:1023700029462046FFF7F0FF208940F00700208122
:1023800030BD2DE9F04104460D4616461F46602D2E
:1023900006D13B46012231462046FFF75AFE05E0B2
:1023A0003B46012231462046FFF79DFE2946204646
:1023B000FFF7D2FF208940F007002081BDE8F081BF
:1023C00030B50C4600210189C9B24FF6FF7505EA08
:1023D0000325154325432943018130BD2DE9F041F3
:1023E00005460E4617469846002443463A4631466F
:1023F0002846FFF7E5FF2C894FF6F870044044F0BB
:1024000007044FF68F70044044F070042C81BDE83F
:10241000F081F0B504460D4616461F463B4632464F
:1024200029462046FFF7CCFF208940F480402081D8
:10243000F0BD0185828270470A46002101884FF66F
:102440008F731940114301807047F0B50C46154653
:102450001E460021002200230189028B038C4FF6C7
:10246000F877394021434FF6FC473A4040F20117D4
:102470003A434FF6DD773B404FF6FF7707EA061702
:102480002F433B43018102830384F0BD0A460021B0
:10249000018B4FF68F7319401143018370470A4631
:1024A0000021018B48F6FF7319404FF6FF7303EAD2
:1024B00002231943018370470A460021818B4FF69E
:1024C0008F7319401143818370470A460021818B25
:1024D00048F6FF7319404FF6FF7303EA02231943CE
:1024E0008183704721B1028842F08002028004E0BB
:1024F00002884FF67F731A400280704721B18288AC
:1025000042F00402828004E082884FF6FB731A4096
:102510008280704721B1828842F00802828004E004
:1025200082884FF6F7731A408280704721B1828803
:1025300042F00102828004E082884FF6FE731A4066
:10254000828070470A460021018B4FF6F7731940CD
:102550001143018370470A460021018B4FF2FF733C
:1025600019404FF6FF7303EA0223194301837047B2
:102570000A460021818B4FF6F7731940114381837E
:1025800070470A460021818B4FF2FF7319404FF6C6
:10259000FF7303EA02231943818370470A4600212F
:1025A000018B4FF6FB7319401143018370470A46B4
:1025B0000021018B4FF6FF3319404FF6FF7303EAFA
:1025C00002231943018370470A460021818B4FF68D
:1025D000FB7319401143818370470A460021818BA8
:1025E0004FF6FF3319404FF6FF7303EA02231943F6
:1025F000818370470A460021018B4FF67F73194093
:102600001143018370470A460021018BC1F30E017B
:102610004FF6FF7303EA02231943018370470A460A
:102620000021818B4FF67F731940114381837047DE
:102630000A460021818BC1F30E014FF6FF7303EAB6
:1026400002231943818370470A460021018C4FF60B
:10265000FD7319401143018470470A460021018C23
:102660004FF6F77319401143018470470A46002161
:10267000018C4FF6DF7319404FF6FF7303EA021324
:102680001943018470470A460021018C4FF67F737D
:1026900019404FF6FF7303EA021319430184704790
:1026A0000A460021018C4FF6FF5319404FF6FF7385
:1026B00003EA02231943018470470A460021018C72
:1026C0004FF2FF7319404FF6FF7303EA02231943D9
:1026D000018470470A460021018C4DF6FF731940B2
:1026E0004FF6FF7303EA023319430184704730B594
:1026F000002301248C40A3B2048C9C430484048CEA
:1027000002FA01F5ADB22C43048430BD30B500238C
:1027100004248C40A3B2048C9C430484048C02FAED
:1027200001F5ADB22C43048430BD70B503460020E2
:1027300000241846183001258D40ACB21D8CA543ED
:102740001D8409B1082909D100EB6100056825F055
:10275000700505600568154305600EE00D1FC5F3A3
:102760004E052844056825F4E045056005684FF6E8
:10277000FF7606EA02263543056070BD21B1028866
:1027800042F00202028004E002884FF6FD731A4014
:102790000280704721B1028842F00402028004E006
:1027A00002884FF6FB731A400280704721B182887D
:1027B00042F08002828004E082884FF67F731A40E4
:1027C0008280704702884FF6F7731A4002800288B1
:1027D0000A430280704782884FF68F731A408280C6
:1027E00082880A438280704702894FF6F8731A4044
:1027F000028102890A430281704702894FF67F7382
:102800001A40028102890A4302817047818470471D
:10281000818570478186704701877047818770473F
:10282000A0F84010704702884FF6FF431A4002801C
:1028300002880A43028070470146888E704701462D
:10284000088F70470146888F70470146B1F84000F5
:1028500070470146888C70470146088D70470246D4
:102860000020138A0B400BB1012000E000207047CC
:10287000CA430282704730B502460020002300247C
:10288000158A05EA0103958905EA010413B10CB123
:10289000012000E0002030BDCA43028270470000E2
:1028A00010B50446FB48844209D101218803FEF794
:1028B000EFFC00214FF48040FEF7EAFC32E0F648DE
:1028C000844209D101214804FEF7EFFC00214FF4B6
:1028D0000030FEF7EAFC25E0F048844209D10121EE
:1028E0008804FEF7E2FC00214FF48020FEF7DDFCB7
:1028F00018E0EB48844209D10121C804FEF7D5FC59
:1029000000214FF40020FEF7D0FC0BE0E5488442A4
:1029100008D101210805FEF7C8FC00214FF4801002
:10292000FEF7C3FC10BD2DE9F04786B005460E4604
:102930000024A24600BFA1460027B08900B100BF15
:102940002F462C8A4CF6FF700440F08804432C82FA
:10295000AC894EF6F3100440B08831890843718980
:1029600008430443AC81AC8A4FF6FF400440B08971
:102970000443AC8201A8FEF704FCC648874202D19A
:10298000DDF810A001E0DDF80CA0A88900F40040FB
:1029900040B10AEBCA0000EB0A1031684900B0FBF5
:1029A000F1F807E00AEBCA0000EB0A103168890071
:1029B000B0FBF1F86420B8FBF0F0040120096421B9
:1029C00001FB1089A88900F4004040B1322000EBDF
:1029D000C900B0FBF1F000F00700044308E032202A
:1029E00000EB09106421B0FBF1F000F00F0004438C
:1029F0002C8106B0BDE8F0874FF41651016000212C
:102A00008180C18001810C21418100218181704739
:102A100010B502460020108A4FF2FF0318400B88C1
:102A20004C8823438C882343CC882343184310824B
:102A300010BD0021018041808180C180704721B19B
:102A4000828942F40052828104E082894DF6FF734C
:102A50001A4082817047F0B5034600240026002505
:102A6000002040F66A17B94200D100BF1846C1F3F2
:102A7000421401F01F06012707FA06F5012C01D1C7
:102A80000C3004E0022C01D1103000E014301AB1F7
:102A900007682F43076002E00768AF430760F0BD97
:102AA0001AB1838A0B43838202E0838A8B43838239
:102AB0007047028A4FF6F0731A400282028A0A4374
:102AC0000282704782894FF2FF731A4082818289A5
:102AD0000A438281704721B1828942F002028281D9
:102AE00004E082894FF6FD731A4082817047028AA2
:102AF0004FF6DF731A400282028A0A43028270474D
:102B000021B1028A42F48042028204E0028A4BF63A
:102B1000FF731A4002827047C1F308028280704737
:102B200001468888C0F308007047818941F001019F
:102B300081817047028BD2B20283028B42EA01226A
:102B400002837047028B02F47F420283028B0A43A6
:102B50000283704721B1828A42F02002828204E01F
:102B6000828A4FF6DF731A408282704721B1828ACF
:102B700042F01002828204E0828A4FF6EF731A401C
:102B80008282704721B1828A42F00802828204E088
:102B9000828A4FF6F7731A408282704721B1828988
:102BA00042F40042828103E08289C2F30E028281F4
:102BB000704721B1828A42F40062828204E0828AF4
:102BC0004FF2FF731A4082827047828A4FF6FB737E
:102BD0001A408282828A0A438282704721B1828AA5
:102BE00042F00202828204E0828A4FF6FD731A40AC
:102BF0008282704702460020B1F5007F00D100BFFD
:102C000013880B400BB1012000E00020704701F455
:102C10000072B2F5007F00D100BFCA430280704746
:102C200070B50246002400230025002040F66A16F5
:102C3000B14200D100BFC1F3421501F01F030126CC
:102C400006FA03F3012D02D19689334006E0022DE6
:102C500002D1168A334001E0968A33400C120126D5
:102C600006FA04F41688344013B10CB1012000E0D8
:102C7000002070BD10B50022002340F66A14A14266
:102C800000D100BF0A1201249440A3B2DC430480A7
:102C900010BD0000003801400044004000480040E2
:102CA000004C004000500040002044490860091DCD
:102CB0000860091D0860091D086041483F4914313A
:102CC0000860704700213D498279002A3AD00A46BF
:102CD000126803689A430B461A600A1D126803685B
:102CE0009A430B1D1A60027911440A6803681A435B
:102CF0000A60324A0832126803689A432F4B08333D
:102D00001A601A1D126803689A432C4B0C331A6020
:102D10004279102A0ED11A1F126803681A43274BF2
:102D200008331A601A1D126803681A43234B0C33C8
:102D30001A600DE02149427911440A6803681A4378
:102D40000A6005E0027911440A6803689A430A6040
:102D500070470021016001710C21417100218171D6
:102D600070471649103109680143144A1032116046
:102D7000704701460020114A143212680A400AB115
:102D8000012000E0002070470C49143108607047B2
:102D9000014600200022094B1B6803EA0102074B91
:102DA00014331B680B4013B10AB1012000E000206E
:102DB0007047024914310860704700000004014068
:102DC000FFFF0F0001684FF6FE7211400160002105
:102DD000016041608160C1608D49884208D18C49A1
:102DE0000839496841F00F01894A083A51608AE080
:102DF00087491431884208D185490839496841F02A
:102E0000F001834A083A51607DE0814928318842C7
:102E100008D17F490839496841F470617C4A083A11
:102E2000516070E07A493C31884208D178490839CC
:102E3000496841F47041764A083A516063E0744948
:102E40005031884208D172490839496841F47021EB
:102E50006F4A083A516056E06D496431884208D1A2
:102E60006B490839496841F47001694A083A516070
:102E700049E067497831884208D16549083949688D
:102E800041F07061624A083A51603CE06149884211
:102E900006D1011F096841F00F01021F116032E0E5
:102EA0005C491431884208D15A49091F096841F028
:102EB000F001584A121F116025E056492831884216
:102EC00008D15449091F096841F47061514A121F21
:102ED000116018E04F493C31884208D14D49091F23
:102EE000096841F470414B4A121F11600BE04949D7
:102EF0005031884207D14749091F096841F47021C0
:102F0000444A121F1160704710B50022026847F64C
:102F1000F0739A430C6A8B6823430C6923434C6912
:102F200023438C692343CC6923434C6A23438C6A33
:102F300023431A430260CB6843600B6883604B688D
:102F4000C36010BD0021016041608160C16001610A
:102F500041618161C161016241628162704721B159
:102F6000026842F00102026004E002684FF6FE735C
:102F70001A40026070471AB103680B43036002E015
:102F800003688B430360704741607047014648689F
:102F900080B2704701460020002201F080531BB12F
:102FA0001C4B083B1A6802E0194B083B1A6802EAFE
:102FB00001030BB1012000E00020704700F08051B8
:102FC00019B11449091F086002E011490839486025
:102FD000704701460020002201F080531BB10D4BC9
:102FE000083B1A6802E00A4B083B1A6802EA010330
:102FF0000BB1012000E00020704700F0805119B1B2
:103000000449091F086002E0014908394860704717
:103010000800024008040240094880470948004768
:10302000FEE7FEE7FEE7FEE7FEE7FEE7FEE7FEE778
:10303000FEE7FEE704480549054A064B70470000D5
:103040007F0E000831010008C8070020C80D0020CD
:10305000C8090020C80900202DE9F05F04460D468C
:103060002946206A07F0C0F9E060E168206807F0AF
:10307000BDF88146A06907F059F88246E16806F07C
:10308000B5FE804607F016F8A061A06907F04EF87B
:103090008046616807F0AAF806464FF08040216933
:1030A00007F0A4F882466169E06806F09FFE834657
:1030B000514607F099F98046A16807F097F807464E
:1030C00020696061E0682061484606F0F3FF8046B1
:1030D000304606F0EFFF8044384606F0EBFF4044F0
:1030E000E061E06907F022F880460E48016840463A
:1030F00007F048F904D20B48006806F0DBFFE061F6
:10310000E06907F013F8804607480168404607F079
:1031100039F804D20448006806F0CCFFE061E069A9
:10312000BDE8F09FA8000020AC0000202DE9F04190
:10313000054600240026002700211348006807F0F8
:1031400021F806D21048006806F0B4FF00F5B47606
:1031500004E00D48006806F0ADFF0646701B4FF412
:10316000B47190FBF1F201FB1204B42C01DDA4F563
:10317000B474204606F0DAFF8046044906F0A4FE47
:1031800007463846BDE8F081640500200000A041F4
:1031900000B585B001214805FEF76DF80121082032
:1031A000FEF75CF8C020ADF8000003208DF80200A7
:1031B0001C208DF803006946F448FEF713F9F44823
:1031C000FEF75EFA0020ADF808004BF6FF70ADF890
:1031D0000A003020ADF80C004FF48060ADF80E000E
:1031E0000001ADF81000EB4801900121E848FEF71E
:1031F000DEFA01A9E648FEF75CFA05B000BD70B53D
:1032000004460D4600BF4FF40031E148FEF7F6FBDF
:103210000028F8D10121DE48FEF7EDFA00BFDE49B3
:10322000DB48FEF7C9FB0028F9D000227821D848F6
:10323000FEF737FB00BFD949D548FEF7BDFB002894
:10324000F9D02146D248FEF726FB00BFD349891C9E
:10325000CF48FEF7B1FB0028F8D02946CC48FEF74E
:103260001AFB00BFCD49891CC948FEF7A5FB002801
:10327000F8D00121C648FEF7CAFA70BD10B5044661
:1032800021460020FFF7BBFF10BD10B504462146C4
:103290004020FFF7B4FF10BD10B56420FDF7C1FA60
:1032A000AE20FFF7EBFF2020FFF7E8FF1020FFF72D
:1032B000E5FFB020FFF7E2FFC820FFF7DFFF0020A7
:1032C000FFF7DCFF1020FFF7D9FF4020FFF7D6FF04
:1032D0008120FFF7D3FFFF20FFF7D0FFA120FFF7EA
:1032E000CDFFA620FFF7CAFFA820FFF7C7FF3F20AA
:1032F000FFF7C4FFA420FFF7C1FFD320FFF7BEFFF5
:103300000020FFF7BBFFD520FFF7B8FFF020FFF745
:10331000B5FFD920FFF7B2FF2220FFF7AFFFDA2079
:10332000FFF7ACFF1220FFF7A9FFDB20FFF7A6FF96
:103330002020FFF7A3FF8D20FFF7A0FF1420FFF749
:103340009DFFAF20FFF79AFF10BD70B504460D46F4
:1033500005F1B001C8B2FFF791FF102141EA141046
:10336000FFF78CFF04F00F0141F00100FFF786FF2B
:1033700070BD70B50646002415E004F1B001C8B276
:10338000FFF77CFF0020FFF779FF1020FFF776FFA3
:10339000002504E03046FFF778FF681CC5B2802D99
:1033A000F8DB601CC4B2082CE7DB70BD10B5002050
:1033B000FFF7DFFF10BD10B58D20FFF75FFF142072
:1033C000FFF75CFFAF20FFF759FF10BD10B58D2050
:1033D000FFF754FF1020FFF751FFAE20FFF74EFF1D
:1033E00010BD2DE9F0470646894617469A464FF02C
:1033F000000800240025BAF1010F03D0BAF1020F32
:103400005ED125E020E0785D203800F0FF087E2EB8
:1034100004DD002609F1010000F0FF0949463046AD
:10342000FFF793FF002409E008EB48015C4A02EB38
:103430004101085DFFF729FF601CC4B2062CF3DBD5
:10344000B01DC6B2681CC5B2785D0028DBD137E07C
:1034500032E0785D203800F0FF08782E04DD002689
:1034600009F1010000F0FF0949463046FFF76DFF02
:10347000002407E004EB08114A4A505CFFF705FFFF
:10348000601CC4B2082CF5DB09F10100C1B2304662
:10349000FFF75BFF002408E004EB08110831414A04
:1034A000505CFFF7F2FE601CC4B2082CF4DB06F19E
:1034B0000800C6B2681CC5B2785D0028C9D100BF3B
:1034C00000BFBDE8F0872DE9F04180460E46174663
:1034D00000247D0131464046FFF737FF00BF06E07C
:1034E0003149485DFFF7D1FE6D1C601CC4B2102C41
:1034F000F6DB701CC1B24046FFF727FF002406E050
:103500002949485DFFF7C1FE6D1C601CC4B2102C38
:10351000F6DBBDE8F0812DE9F05F06460F469046E8
:103520001C46DDF828A04FF0000BE11704EB5171A9
:10353000C910A4EBC10131B92046E11704EB517168
:10354000C1F3C70506E02046E11704EB5171C9102D
:10355000491CCDB23D4614E029463046FFF7F5FE42
:10356000B1460AE059460BF1010B1AF80100FFF7CA
:103570008CFE09F1010000F0FF09C145F2DB681C77
:10358000C5B2A542E8DBBDE8F09F0000000C014099
:1035900000540040801A060001000300820007006A
:1035A000C6A50008EEA70008B800002010B5044624
:1035B00044B100219348FFF729F901219148FEF712
:1035C00091FE03E000218F48FEF78CFE10BD10B580
:1035D00040F225518C48FFF723FB00B38A48FFF7E0
:1035E0009FFAC4B289480088C82812DA00218548A9
:1035F000FFF70CF98548008810B90120FFF7D6FFC6
:10360000824801880088401C804A108080484454C9
:1036100005E07E48008840F400407C49088010BDE9
:103620007FB505460C4601210420FDF724FEADF8C8
:103630000450ADF800400020ADF80600ADF80200DF
:1036400069467048FEF7F2FA012211466D48FEF70E
:1036500064FE1E208DF80C0001208DF80D00022064
:103660008DF80E0001208DF80F0003A8FDF72FFB49
:103670007FBD70B58CB006460C4615460121084644
:10368000FDF7DFFD3046FFF79DFB0194029510200A
:103690000390002004900590802006900020079061
:1036A000089009904FF480500A9000200B9001A9D7
:1036B0003046FFF729FC0CB070BD10B586B004464B
:1036C00001210420FDF7CAFD01214804FDF7D3FDC7
:1036D0004D48FFF7E5F80420ADF8100003208DF801
:1036E000120018208DF8130004A94A48FDF77AFE4D
:1036F0000820ADF8100004208DF8130004A94548F7
:10370000FDF770FE00940020ADF80400ADF806004F
:10371000ADF80800ADF80C000C20ADF80A006946C1
:103720003948FFF700F9012280213748FFF7B8F93F
:10373000394A3549091D3948FFF79BFF01213248B5
:10374000FFF77DF9012240F225512F48FFF783F959
:1037500026208DF8140002208DF815008DF8160033
:1037600001208DF8170005A8FDF7B1FA41F61F41B9
:103770006320FFF755FF002024490880FFF716FF5C
:1037800006B010BD70B504460D4600212046FFF777
:10379000E6FB29462046FFF7F7FB01212046FFF70D
:1037A000DEFB70BD0FB438B505A800901A48009A2A
:1037B000049903F0E9FD0020009000BF1748FFF7CF
:1037C000E5FB0028FAD1144803F0C2FFC4B2214639
:1037D0001248FFF7D7FF38BC5DF814FB10B5012184
:1037E0000848FFF748F860B10848008840F40040F6
:1037F0000649088001210348FFF74EF80020FFF733
:10380000D5FE10BD000800400044004058050020CF
:103810009006002000080140C805002080000240FA
:10382000F8B50A26012501210420FDF717FD022025
:10383000ADF8000010208DF8030003208DF8020081
:1038400069467B48FDF7CEFD02217948FDF777FEFA
:103850004FF41650FFF731FF32E001207549086040
:103860000A20FCF7DEFF74A0FFF79CFF00207449DC
:10387000C1F8840100240AE07248008800F4004086
:1038800000B106E00520FCF7CCFF601CC4B20A2C96
:10389000F2DB00BF6B48008800F4004080B169484B
:1038A0000578002067490880042D09D16648007812
:1038B0004F2805D1644840784B2801D1002504E009
:1038C0003000A6F10101CEB2C7D100BF06B9012573
:1038D0002846F8BD70B50F2630E001205549086034
:1038E0000A20FCF79EFF59A0FFF75CFF00250AE0C5
:1038F0000A20FCF796FF5348008800F4004000B10E
:1039000003E0681CC5B2142DF2DB00BF002049495A
:1039100008604C48008800F4004078B149480478B9
:103920000020484908800D2C08D1474800782B28F2
:1039300004D1454880793038C4B204E03000A6F1A3
:103940000101CEB2C9D100BF06B9FF24204670BD27
:103950002DE9F04105460F272FE001203549086089
:103960000A20FCF75EFF29463BA0FFF71BFF002063
:103970003349C1F8840100260AE03248008800F487
:10398000004000B106E00520FCF74BFF701CC6B2FA
:10399000142EF2DB00BF2B48008800F4004060B119
:1039A00028480478002027490880042C05D126489F
:1039B00000784F2801D1002404E03800A7F101016C
:1039C000CFB2CAD100BF07B9FF242046BDE8F081BD
:1039D00070B504460120174908600A20FCF721FF52
:1039E00021461DA0FFF7DEFE00260AE015480088EC
:1039F00000F4004000B106E00A20FCF712FF701C42
:103A0000C6B2322EF2DB00BF00200A4908600D4822
:103A1000008800F4004048B10A48057800200949B0
:103A20000880094948550EA003F0C0FC70BD000095
:103A3000000801408401214241540D0A00000000A9
:103A400000002142580500209006002041542B52CE
:103A50004F4C453F0D0A000025730D0A0000000081
:103A60000D0A2573000000001FB501210420FDF799
:103A7000F5FB48208DF80F004FF48070ADF80C0076
:103A800003208DF80E0003A9F748FDF7ABFC0821D1
:103A90000020FDF7BDFD01208DF80A000002019015
:103AA00000208DF808000C208DF8090001A8FFF710
:103AB00009F917208DF8000001208DF8030003207C
:103AC0008DF801008DF802006846FDF700F91FBD72
:103AD00070B505460C4600F00BFAD02000F0BCFA99
:103AE00000F047FA18B100F023FA012070BD284613
:103AF00000F0B2FA00F03DFA204600F0ADFA00F016
:103B000038FA18B100F014FA0120EFE700F010FACB
:103B10000020EBE770B5044600F0EAF9D02000F091
:103B20009BFA00F026FA204600F096FA00F021FAFF
:103B300000F0DEF9D12000F08FFA00F01AFA002030
:103B400000F0B5FA054600F0F3F9284670BD70B5EF
:103B500004460025BC2C01DB012510E0622C01DBB2
:103B600002250CE02A2C01DB032508E0142C01DBE4
:103B7000042504E00A2C01DB052500E00625294682
:103B80001A20FFF7A5FF70BD70B50446B4F57A7F23
:103B900001DD4FF47A74042C00DA04244FF47A70B7
:103BA00090FBF4F0401EC5B229461920FFF790FFA4
:103BB0000546264604EBD671C1F34F00FFF7C7FF59
:103BC00070BD10B50446E006010E1C20FFF780FF13
:103BD00010BD10B50446E006010E1B20FFF778FF6C
:103BE00010BD70B5044600F06AF980216B20FFF724
:103BF0006FFF6420FCF715FE00216B20FFF768FFC4
:103C00000320FFF7E6FF0020FFF7DBFF3220FFF77E
:103C1000BBFF00213820FFF75BFF00216A20FFF780
:103C200057FF80213720FFF753FF7520FFF772FF02
:103C30000546682D12D101216B20FFF749FF0021B5
:103C40006C20FFF745FF00BF02F064FA0028FBD1AB
:103C5000A0B202F081FDFFF707FF01E0012070BD77
:103C60000020FCE72DE9F04106460F4614461D46AC
:103C700000F03EF9002141EA4601C8B200F0ECF93B
:103C800000F077F920B100F053F90120BDE8F08190
:103C9000384600F0E1F900F06CF900F029F9012153
:103CA00001EB4601C8B200F0D7F900F062F90DE06F
:103CB000012C04D1002000F0FAF9287003E0012063
:103CC00000F0F5F92870601EC4B26D1C002CEFD115
:103CD00000F02EF90020D9E72DE9FC4104460D46FD
:103CE00016466B46062243216820FFF7BBFF0746B6
:103CF000BFB99DF801009DF8001040EA012000B214
:103D000020809DF803009DF8021040EA012000B2D7
:103D100028809DF805009DF8041040EA012000B2BB
:103D200030803846BDE8FC812DE9FC4104460D4653
:103D300016466B4606223B216820FFF793FF074695
:103D4000BFB99DF801009DF8001040EA012000B2C3
:103D500020809DF803009DF8021040EA012000B287
:103D600028809DF805009DF8041040EA012000B26B
:103D700030803846BDE8FC8110B53C480078401CD6
:103D8000322190FBF1F201FB1200384908704FF428
:103D90008070FEF7FDFF90B14FF48070FFF709F8D7
:103DA000334A34493448FFF7BFFF344A3449354871
:103DB000FFF792FF344A3549354802F0F1F910BD5A
:103DC0002DE9F84F6B46022241216820FFF74AFF98
:103DD0009DF801009DF8001040EA01200FFA80FADA
:103DE000504605F0D3FC804600222A4B05F076FBB6
:103DF0000646294A294B05F0C1FA044605F08CFA1B
:103E000083462749584606F0F1F9044606F052F970
:103E100000B2BDE8F88F2DE9F04105460E46174681
:103E2000984600F065F8002141EA4501C8B200F06B
:103E300013F900F09EF820B100F07AF80120BDE8F7
:103E4000F081304600F008F900F093F800242BE0F0
:103E500018F8040000F000F900F08BF818B100F039
:103E600067F80120EBE71DE0000801407405002021
:103E70006C0500206A0500206805002072050020FE
:103E8000700500206E0500206405002060050020FC
:103E90005C05002000407540A4703D0AD7434240B5
:103EA0000000C842601CC4B2BC42D1DB00F040F844
:103EB0000020C4E710B5022000F03FF910BD08B59E
:103EC00001210820FDF7CAF94FF44060ADF8000069
:103ED00010208DF8030003208DF8020069468D48FC
:103EE000FDF780FA4FF440618A48FDF728FB08BDD2
:103EF00010B58848001D006820F470408549091DF0
:103F000008600846006840F440500860012082497B
:103F100008608249C1F8A801FFF7CCFF00207E4964
:103F20000860FFF7C7FF00207C49C1F8A80110BD59
:103F300010B57848001D006820F470407549091DCF
:103F400008600846006840F440500860002072494C
:103F5000091F08607149C1F8AC01FFF7ABFF0120F0
:103F60006D49091F08606D49C1F8AC01FFF7A2FF58
:103F700010BD10B500246748001D006820F4704093
:103F80006449091D08600846006840F40040086064
:103F9000012061490860FFF78DFF01205F49C1F8EA
:103FA000A801FFF787FF07E0601CC4B2FA2C03DD0D
:103FB000FFF7BEFF012010BD574880380068002879
:103FC000F2D15549091F086000BFF4E710B5002081
:103FD0005149091F08604F48001D006820F47040D7
:103FE0004C49091D08600846006840F440500860CC
:103FF00000204A49C1F8AC01FFF75CFF01204649A7
:10400000091F0860FFF756FF00204449C1F8A801C6
:1040100010BD10B500204049091F08603D48001D33
:10402000006820F470403B49091D0860084600689C
:1040300040F44050086001203849C1F8AC01FFF756
:1040400039FF01203449091F0860FFF733FF0020C2
:104050003249C1F8A80110BD70B504462D48001DB5
:10406000006820F470402B49091D0860084600686C
:1040700040F44050086000202749091F08600025CF
:1040800012E0E009244908606006040E012023497B
:10409000C1F8A801FFF70EFF00201F49091F0860A3
:1040A000FFF708FF681CC5B2082DEADB70BD70B5CC
:1040B000054600241748001D006820F4704015498B
:1040C000091D08600846006840F4004008600026AA
:1040D00015E000201049091F0860FFF7EBFE0120E2
:1040E0000E49C1F8A8016006040E0B48803800682C
:1040F00008B1601CC4B2FFF7DDFE701CC6B2082E0A
:10410000E7DB15B9FFF785FF01E0FFF75FFF20460A
:1041100070BD0000000C0140AC81214200802142B2
:10412000002107E0002200E0521C42F66E039A4292
:10413000FADB491C8142F5DB7047002105E00022D3
:1041400000E0521C092AFCDB491C8142F7D370476E
:1041500038B50446F74890F82400C0B114B10220E5
:10416000009001E000200090F24A1268D17BF14AF1
:10417000526810786B460122FFF74DFE10B14FF0E8
:10418000FF3038BD9DF80010EA48417423E0E9484B
:10419000807A10B94FF0FF30F3E724B1E548407C56
:1041A00008B10020EDE714B10120009001E00020EB
:1041B0000090E04A1268D17BDE4A526810786B4664
:1041C0000122FFF728FE10B14FF0FF30D9E79DF82C
:1041D0000010D84841740020D3E738B500241FE010
:1041E000D4480068C07AA04204D0D2480068407D1C
:1041F000A04200D112E0CF49496808786B460122FD
:104200002146FFF72FFD10B14FF0FF3038BD9DF86C
:1042100000202146C8A003F0C9F800BF601CC4B24A
:10422000C44840680079A042DADC0020EEE770B5AF
:1042300004460D46BF480068C07AA04204D0BD487D
:104240000068407DA04202D14FF0FF3070BDB948F8
:1042500040680079A04202DC4FF0FF30F6E7B54934
:10426000496808782B4601222146FFF7FBFCEDE761
:1042700038B50446AF4890F82300A04201D1002091
:1042800038BD14B13020009001E000200090A94812
:10429000807C20B19DF8000040F002000090A5480D
:1042A00090F8220020B19DF8000040F080000090BE
:1042B000A04A1268117D9F4A526810786B4601220D
:1042C000FFF7A9FD10B14FF0FF30D9E7994880F80A
:1042D00023400020D4E738B5044604F0700010B144
:1042E0000120009005E014B10020009001E0402082
:1042F0000090904A1268917C8E4A526810786B4602
:104300000122FFF788FD20B100218A488172481EF2
:1043100038BD9DF8000020F0400186480173002060
:10432000009004F0400020B99DF8000040F0040027
:10433000009004F0200020B99DF8000040F0020039
:10434000009004F0100020B99DF8000040F001003A
:10435000009004F0080020B99DF8000040F03800FB
:104360000090744A1268D17C724A526810786B4689
:104370000122FFF750FD20B100216E488172481ED6
:10438000C6E724B1082C02D00020FFF771FF69486E
:104390008472002101753220FFF7C2FE0020B7E7CA
:1043A00038B504466348807CA04201D1002038BD66
:1043B000002C46D05F4A126811795E4A5268107824
:1043C0006B460122FFF74EFC10B14FF0FF30EEE7D5
:1043D0009DF8000020F020000090564A12681179E4
:1043E000544A526810786B460122FFF714FD10B151
:1043F0004FF0FF30DBE70320FFF792FE0220009032
:104400004C4890F8220020B19DF8000040F0800058
:104410000090484890F8230020B19DF8000040F03B
:1044200030000090434A1268117D424A5268107869
:104430006B460122FFF7EFFC002851D04FF0FF3010
:10444000B5E73C4A126811793A4A526810786B46CF
:104450000122FFF707FC10B14FF0FF30A7E7354806
:10446000807A00F0010028B19DF8000040F02000A3
:10447000009004E09DF8000020F0200000902D4AFC
:10448000126811792B4A526810786B460122FFF7A7
:10449000C2FC10B14FF0FF3089E70320FFF740FE68
:1044A000244890F8220010B18020009001E0002004
:1044B0000090204890F8230020B19DF8000040F0C3
:1044C000300000901B4A1268117D1A4A5268107819
:1044D0006B460122FFF79FFC10B14FF0FF3066E7FB
:1044E00014488474002062E708B51248807A10B935
:1044F0004FF0FF3008BD002000900E4A1268D17BBB
:104500000C4A526810786B460122FFF784FC10B108
:104510004FF0FF30EEE7074A12685179054A5268BA
:1045200010786B460122FFF776FC68B14FF0FF3040
:10453000E0E7000078050020252335783A20252380
:1045400035780D0A00000000F84A12681179F74A20
:10455000526810786B460122FFF75DFC10B14FF0F6
:10456000FF30C7E7F14890F82400002853D00C2012
:104570000090EE4A12681179EC4A526810786B4646
:104580000122FFF748FC10B14FF0FF30B2E73220B4
:10459000FFF7C6FDC0200090E448807A00F00100DB
:1045A00020B19DF8000040F020000090DF4A126822
:1045B0001179DE4A526810786B460122FFF72BFC16
:1045C00010B14FF0FF3095E7D848407C10B1022081
:1045D000009001E000200090D44A1268D17BD34AB9
:1045E000526810786B460122FFF715FC10B14FF0AE
:1045F000FF307FE700200090CC4A12685179CB4A07
:10460000526810786B460122FFF705FC002855D050
:104610004FF0FF306EE704200090C44A1268117911
:10462000C24A526810786B460122FFF7F4FB10B1C2
:104630004FF0FF305EE7BD48807C20B9BB48807AF0
:1046400000F0010010B94020009001E060200090CF
:10465000B64A12681179B54A526810786B46012241
:10466000FFF7D9FB10B14FF0FF3043E73220FFF7DF
:1046700057FDAE48407C10B10120009001E00020C1
:104680000090AA4A1268D17BA84A526810786B46FB
:104690000122FFF7C0FB10B14FF0FF302AE7A34A19
:1046A00012685179A14A52681078A04B1033012248
:1046B000FFF7B1FB10B14FF0FF301BE7002019E707
:1046C00070B50446002624F00104984890F82400B0
:1046D00008B1002070BD9548807A10B94FF0FF30C6
:1046E000F8E79248057C807A204090490874084693
:1046F000007CA04202D04FF0FF3600E0002614B943
:104700008A48007D18B10120FFF722FD02E0002059
:10471000FFF71EFD3CB1FFF7E7FE20B183480574AB
:104720004FF0FF30D6E73046D4E738B504467F482F
:10473000807A10B94FF0FF3038BDBC2C02DB01206D
:10474000009015E0622C02DB0220009010E02A2C81
:1047500002DB032000900BE0142C02DB042000900D
:1047600006E00A2C02DB0520009001E00620009004
:104770006E48C07A9DF80010884201D10020DBE726
:104780006A4A12689178694A526810786B46012229
:10479000FFF741FB10B14FF0FF30CDE79DF800105F
:1047A0006248C1720020C7E738B50446282C02DDF4
:1047B0004FF0FF3038BDDCB90020FFF759FD002075
:1047C0008DF8000007208DF80100584A1268917C8E
:1047D000564A526810786B460222FFF71CFB10B154
:1047E0004FF0FF30E6E70021504801750020E1E777
:1047F0000120FFF73DFD20208DF80000012C06D19F
:1048000000208DF801000520FFF78FFF17E0052C31
:1048100006DC01208DF801000520FFF786FF0EE081
:10482000142C06DC02208DF801000A20FFF77DFF22
:1048300005E003208DF801001420FFF776FF9DF8B6
:104840000100072101EB8010C0B28DF80100374A4A
:104850001268917C354A526810786B460222FFF745
:10486000DAFA10B14FF0FF30A4E708212F48817227
:1048700000210173012101750020FFF721FF0020B5
:1048800098E738B504462948807A10B94FF0FF30D0
:1048900038BD264890F8240010B14FF0FF30F7E7FC
:1048A0002248007D50B134B1282C04DCE0B2FFF77F
:1048B0007BFF0020ECE70020FFF776FF042C01DAF5
:1048C000042404E0B4F57A7F01DD4FF47A744FF4E8
:1048D0007A7090FBF4F0401EC0B20090134A126848
:1048E0005178124A526810786B460122FFF793FA0A
:1048F00010B14FF0FF30CBE79DF80000401C4FF4A3
:104900007A7191FBF0F081B20848C1810146C989F2
:104910004810FFF70AFF0020BAE738B504460348FD
:10492000807A28B94FF0FF3038BD000078050020AC
:10493000022C06D0042C07D0082C08D0102C0CD147
:1049400008E0002000900BE00820009008E0102014
:10495000009005E01820009002E04FF0FF30E3E700
:1049600000BFF948407A9DF80010B0EBE10F01D18B
:104970000020D9E7F44A1268D179F34A52681078D6
:104980006B460122FFF747FA10B14FF0FF30CBE73B
:104990009DF80000C110EC4841720020C4E738B512
:1049A0000446E948807A10B94FF0FF3038BDFA2C40
:1049B00009D0B4F5FA7F09D0B4F57A7F09D0B4F5FF
:1049C000FA6F0CD108E0002000900BE00820009066
:1049D00008E01020009005E01820009002E04FF061
:1049E000FF30E3E700BFD848007A9DF80010B0EB35
:1049F000E10F01D10020D9E7D34A12689179D24A58
:104A0000526810786B460122FFF705FA10B14FF09B
:104A1000FF30CBE79DF80000C010CB4908720020A2
:104A2000C4E71CB580208DF80000C74A1268917C4D
:104A3000C54A526810786B460122FFF7ECF910B1B5
:104A40004FF0FF301CBD6420FFF76AFB00208DF89B
:104A50000000BD4A1268917CBB4A526810786B46D0
:104A60000122FFF7D8F910B14FF0FF30EAE7B64A5C
:104A70001268917DB44A526810786B460622FFF79F
:104A8000F1F810B14FF0FF30DCE79DF80500C007EA
:104A9000400F9DF8031001F0010140EA41009DF82C
:104AA000011001F0010140EA010494B1012C03D18D
:104AB0000121A548C17431E0022C03D10021A24894
:104AC000C1742BE02146A1A002F070FC4FF0FF3032
:104AD000B8E79D4A1268D1789B4A526810786B46B5
:104AE0000122FFF7BFF810B14FF0FF30AAE79DF8A1
:104AF000000000F00F042CB99E4802F057FC4FF064
:104B0000FF309FE7042C06D19BA002F04FFC01214F
:104B10008D48C17402E000218B48C174FF218A488E
:104B20008172FF2088490872FF2187484172C17253
:104B30004FF6FF71C181FF2101748174012101735E
:104B400080F82210002180F823104175017516307D
:104B5000016041608160163880F8241080F82510CB
:104B6000C1844FF4FA60FFF71AFF10B14FF0FF3025
:104B700068E70220FFF7D1FE10B14FF0FF3061E788
:104B80002A20FFF7D2FD10B14FF0FF305AE7322054
:104B9000FFF777FE10B14FF0FF3053E70020FFF72B
:104BA0008FFD10B14FF0FF304CE70020FFF7F8FB0E
:104BB00010B14FF0FF3045E70020FFF78CFB0020DD
:104BC00040E770477CB504460D465F48807A00F0A8
:104BD000700010B94FF0FF307CBD5B4A1268117B4A
:104BE000594A526810786B460622FFF73BF810B11D
:104BF0004FF0FF30F0E79DF801009DF8001040EA0B
:104C0000012000B220809DF803009DF8021040EAC8
:104C1000012000B260809DF805009DF8041040EA74
:104C2000012000B2A08015B12846FFF7CAFF00207E
:104C3000D2E77CB504460D464348807A00F0080070
:104C400010B94FF0FF307CBD3F4A1268517B3E4A9D
:104C5000526810786B460622FFF704F810B14FF047
:104C6000FF30F0E79DF801009DF8001040EA0120B8
:104C700000B220809DF803009DF8021040EA012058
:104C800000B260809DF805009DF8041040EA012004
:104C900000B2A08015B12846FFF793FF0020D2E7AD
:104CA0002DE9FE4F05460C462748807A18B94FF08B
:104CB000FF30BDE8FE8F244A1268917B224A526879
:104CC000107802AB0222FEF7CDFF10B14FF0FF309B
:104CD000EFE79DF809009DF8081040EA012006B2B0
:104CE00014B12046FFF76DFF17494968C88805F0E1
:104CF00035FA154901904968B1F9080005F016FA2E
:104D00008346304605F012FA5946009005F06CFBD8
:104D10008246019905F0D8F881461F4905F066F8EA
:104D200080464FF08F4105F061FA074605F0C2F961
:104D300028600020BDE710B588B004461CB94FF0CC
:104D4000FF3008B010BD29E078050020556E73755E
:104D500070706F7274656420736F667477617265CA
:104D60002070726F64756374207265762025642EDE
:104D70000A000000ECBB000848616C662073656E99
:104D80007369746976697479207061727420666FD2
:104D9000756E642E0A00000000000C42206830B9D5
:104DA000606820B9A06810B9002008B010BDFA49A9
:104DB0004968087806AB03221146FEF753FF10B18D
:104DC0004FF0FF30F1E79DF81800082101EB2010AB
:104DD00000F00F00ADF800009DF8190001EB201065
:104DE00000F00F00ADF802009DF81A0001EB201052
:104DF00000F00F00ADF8040020684100BDF900008C
:104E0000403091FBF0F000B2ADF810006068410056
:104E1000BDF90200403091FBF0F000B2ADF8120095
:104E2000A0684100BDF90400403091FBF0F000B2F1
:104E3000ADF81400D8494968087806AB0622114637
:104E4000FEF710FF10B14FF0FF30AEE79DF81900EC
:104E50009DF8181040EA012000B2ADF808009DF856
:104E60001B009DF81A1040EA012000B2ADF80A00BC
:104E70009DF81D009DF81C1040EA012000B2ADF81D
:104E80000C00BDF81000BDF80810084400B2ADF8E1
:104E90001000BDF81200BDF80A10084400B2ADF8C9
:104EA0001200BDF81400BDF80C10084400B2ADF8B3
:104EB0001400BDF81000000A8DF81800BDF81000AD
:104EC000C0B28DF81900BDF81200000A8DF81A0062
:104ED000BDF81200C0B28DF81B00BDF81400000A26
:104EE0008DF81C00BDF81400C0B28DF81D00AA4951
:104EF0004968087806AB06221146FEF78CFF10B110
:104F00004FF0FF3051E700204FE70146A248007AFA
:104F100030B1012807D0022809D003280FD10AE0B8
:104F2000FA2008800EE04FF4FA7008800AE04FF48F
:104F30007A70088006E04FF4FA60088002E00020F2
:104F4000088000BF00BF0020704701469248407AA9
:104F500030B1012807D0022808D003280CD108E07E
:104F6000022008700BE00420087008E00820087098
:104F700005E01020087002E04FF0FF30704700BFDE
:104F80008548C07C18B108784006000E08700020E3
:104F9000F4E701468048C07A082817D2DFE800F01D
:104FA0001704070A0D101318BC20088013E06220B4
:104FB000088010E02A2008800DE0142008800AE014
:104FC0000A20088007E00520088004E000BF00BF39
:104FD0000020088000BF00BF0020704701466E48D7
:104FE00090F8240010B14FF0FF3070476A48C08934
:104FF00008800020F9E7014600200880401E704725
:1050000001464FF0FF30704701466348007A30B1E7
:10501000012807D0022808D003280CD108E05F48F7
:1050200008600BE05E48086008E05E48086005E044
:105030005D48086002E04FF0FF30704700BF00207D
:10504000FBE701465448407A30B1012808D00228D5
:105050000AD0032810D10BE04FF4804008800EE006
:1050600041F69C7008800AE04FF48050088006E00A
:105070004FF40060088002E04FF0FF30704700BF3F
:105080004548C07C10B10888401008800020F5E732
:1050900001464148007C08700020704701463E48A8
:1050A000807A10B10120087001E000200870002013
:1050B000704738B504463848807A10B94FF0FF3051
:1050C00038BD354A1268117C334A526810786B46F5
:1050D0000222FEF7C7FD10B14FF0FF30F0E79DF858
:1050E00001009DF8001040EA012000B2208000205D
:1050F000E6E72DE9FE4F0746884692461D46DDF855
:1051000030B000260024244890F8240010B1601E1E
:10511000BDE8FE8F002028701F48807A10B94FF03C
:10512000FF30F5E71C48007C10B94FF0FF30EFE787
:105130001948007C00F0400008B1B01CC6B2164807
:10514000007C00F0200008B1B01CC6B21248007C00
:1051500000F0100008B1B01CC6B20F48007C00F08F
:10516000080008B1B01DC6B20B4A1268917A0A4A0B
:10517000526810786B460222FEF774FD10B14FF0B2
:10518000FF30C5E79DF801009DF8001040EA0129B5
:10519000B1450BDA0020BBE778050020000003438F
:1051A000000083423333034233338341FC48406879
:1051B0004088B9EB600F17DDF94A1268517CF84A54
:1051C000526810786B460122FEF74CFD10B14FF08B
:1051D000FF309DE79DF8000000F0100020B1FFF7C0
:1051E00083F96FF0010093E75046FFF7EAFCEC4AC1
:1051F0001268D17AEA4A526810786B463246FEF756
:1052000031FD10B14FF0FF3082E799FBF6F0401E00
:105210008BF8000000202870B4422AD0E048007CBF
:1052200000F0080028B3601C1DF800001DF80410F1
:1052300040EA012000B2A8F80000E01C1DF80010B0
:10524000A01C1DF8000041EA002000B2A8F80200EE
:10525000601D1DF80010201D1DF8000041EA00200F
:1052600000B2A8F80400287840F008002870A01DBB
:1052700084B2B44213D0CA48007C00F0400070B140
:10528000601C1DF800001DF8041040EA012000B267
:105290003880287840F040002870A01C84B2B442C6
:1052A00013D0BF48007C00F0200070B1601C1DF8D6
:1052B00000001DF8041040EA012000B27880287830
:1052C00040F020002870A01C84B2B44213D0B4482F
:1052D000007C00F0100070B1601C1DF800001DF88B
:1052E000041040EA012000B2B880287840F0100095
:1052F0002870A01C84B200200AE7F8B504460F46C7
:105300001646A74890F8240010B94FF0FF30F8BDBA
:10531000A348807A10B94FF0FF30F8E7A04A12682E
:10532000917A9F4A526810786B460222FEF79AFCE7
:1053300010B14FF0FF30EAE79DF801009DF8001032
:1053400040EA0125A54203DA00203070401EDEE766
:10535000934840684088B5EB600F17DD904A1268AB
:10536000517C8F4A526810786B460122FEF77AFC16
:1053700010B14FF0FF30CAE79DF8000000F01000B8
:1053800020B1FFF7B1F86FF00100C0E7E2B2844B43
:105390001B68D97A824B5B6818783B46FEF762FC43
:1053A00010B14FF0FF30B2E795FBF4F0401E3070C3
:1053B0000020ACE701467A4880F8221000207047B0
:1053C0007CB5054676494968087801AB04220D2171
:1053D000FEF748FC08B107207CBD9DF80700C0F32C
:1053E00001109DF8041001F0E00140EAE1008DF8A1
:1053F00000009DF80700C0F381009DF8051001F042
:10540000E00140EAE1008DF801009DF8070000F09E
:1054100003009DF8061001F0E00140EAE1008DF87C
:10542000020000241CE01DF8040018B9002045F813
:10543000240013E05B4845F8240006E055F82400FA
:10544000594904F0D3FE45F824001DF80400401E1D
:10545000C0B20DF804000028F0D100BF601CC4B237
:10546000032CE0DB0020B7E72DE9FE4F06460F4690
:1054700000256846FFF7A4FF002442E056F8240008
:1054800057F82410A0EB010ABAF1000F01DB5146D6
:1054900001E0CAF10001084604F048FE83464FF0DF
:1054A0008F4104F011FD80465DF82400002104F0D6
:1054B000CDFD16D05DF82410404604F005FD82466F
:1054C0004FF07E5104F090FF814629F0004A3748A2
:1054D000416A504604F056FF12D20120A040054315
:1054E0000EE03248C169404604F04CFE05D32F4817
:1054F000016A404604F046FF02D20120A040054365
:10550000641C032CBADB2846BDE8FE8F2DE9FC5F46
:1055100006460F46002522494968087801AB032258
:105520000D21FEF79FFB10B10720BDE8FC9F9DF801
:10553000040000F01F008DF804009DF8050000F045
:105540001F008DF805009DF8060000F01F008DF883
:105550000600002462E056F8240057F82410A0EB5F
:10556000010BBBF1000F01DB594601E0CBF100015B
:10557000084604F0DBFD4FF08F41009004F0A4FCDE
:10558000814601A8005DC0B30849086804F0E6FD43
:1055900083465946064804F097FC80460FE0000019
:1055A000780500207B14AE3E1D5A843F08AE0008EB
:1055B00000B04C45FE49404604F018FE804601A864
:1055C000005D401EC0B201A908550028F2D1414635
:1055D000484604F079FC83464FF07E5104F004FF06
:1055E00082462AF0004BF3488169584604F0CAFE0F
:1055F00013D20120A04005430FE0FFE7ED48016909
:10560000484604F0BFFD05D3EA484169484604F026
:10561000B9FE02D20120A0400543641C032C9ADB92
:10562000284682E72DE9F04F87B005460C469146A3
:1056300001208DF8100000208DF81100DE4A12685C
:10564000917CDD4A5268107804AB0222FEF7E3FB3E
:1056500020B14FF0FF3007B0BDE8F08FC820FEF753
:105660005FFD00208DF81000D34A1268D17BD24A2A
:105670005268107804AB0122FEF7CDFB10B14FF059
:10568000FF30E8E7CC4A12685179CB4A526810786B
:1056900004AB0122FEF7BFFB10B14FF0FF30DAE799
:1056A000C54A1268917CC44A5268107804AB012242
:1056B000FEF7B1FB10B14FF0FF30CCE7BE4A1268E5
:1056C000D17DBD4A5268107804AB0122FEF7A3FBDE
:1056D00010B14FF0FF30BEE7B74A12681179B64AF1
:1056E0005268107804AB0122FEF795FB10B14FF021
:1056F000FF30B0E70C208DF81000AF4A1268117926
:10570000AD4A5268107804AB0122FEF784FB10B159
:105710004FF0FF309FE70F20FEF702FDA648806A9A
:10572000407A8DF81000A44A12689178A24A526813
:10573000107804AB0122FEF76EFB10B14FF0FF3082
:1057400089E79D48806A007A8DF810009A4A1268AD
:105750005178994A5268107804AB0122FEF75BFB3E
:1057600010B14FF0FF3076E7B9F1000F07D0924843
:10577000806A807A40F0E0008DF8100004E08E48E6
:10578000806A807A8DF810008B4A126891798A4A73
:105790005268107804AB0122FEF73DFB10B14FF0C8
:1057A000FF3058E7B9F1000F07D08348806AC07A0C
:1057B00040F0E0008DF8100003E07E48C07A8DF8DC
:1057C00010007D4A1268D1797B4A5268107804AB88
:1057D0000122FEF720FB10B14FF0FF303BE7B9F19B
:1057E000000F02D0C820FEF79BFC40208DF810006F
:1057F000714A12681179704A5268107804AB01221C
:10580000FEF709FB10B14FF0FF3024E778208DF848
:105810001000694A12685179674A5268107804ABDF
:105820000122FEF7F8FA10B14FF0FF3013E761499B
:105830008889FEF775FC00208DF810005E4A12681A
:1058400051795D4A5268107804AB0122FEF7E3FA01
:1058500010B14FF0FF30FEE6574A1268917A564A6F
:105860005268107804AB0222FEF7FCF910B14FF039
:10587000FF30F0E69DF811009DF8101040EA012B72
:105880000C209BFBF0F0C6B20020A8606860286086
:10589000A06060602060824665E0474A1268D17A65
:1058A000454A5268107804AB0C22FEF7DBF910B1C0
:1058B0004FF0FF30CFE69DF811009DF8101040EA40
:1058C000012000B2ADF808009DF813009DF81210F9
:1058D00040EA012000B2ADF80A009DF815009DF8DD
:1058E000141040EA012000B2ADF80C00BDF9081018
:1058F000206808442060BDF90A10606808446060B0
:10590000BDF90C10A0680844A0609DF817009DF830
:10591000161040EA012000B2ADF800009DF8190011
:105920009DF8181040EA012000B2ADF802009DF881
:105930001B009DF81A1040EA012000B2ADF80400E7
:10594000BDF90010286808442860BDF90210686895
:1059500008446860BDF90410A8680844A8600AF10A
:10596000010000F0FF0AB24597DB1248D0F800C0F2
:105970002868C117090441EA104107046246002360
:10598000384601F0DCFC32460023CDE9020101F08B
:10599000D6FC28600748D0F800C06868C117090421
:1059A00041EA1041070462460023384606E0000041
:1059B00054E3853F08AE00087805002001F0BFFCE5
:1059C00032460023CDE9020101F0B9FC6860FE48CF
:1059D000D0F800C0A868C117090441EA10410704C3
:1059E00062460023384601F0AAFC32460023CDE986
:1059F000020101F0A4FCA860F348D0F804C02168BB
:105A0000C817000440EA11480F04624600233846D4
:105A1000414601F094FC32460023CDE9020101F039
:105A20008EFC2060E848D0F804C06068C117090403
:105A300041EA1041070462460023384601F07FFC2A
:105A400032460023CDE9020101F079FC6060DE48B6
:105A5000D0F804C0A068C117090441EA1041070446
:105A600062460023384601F06AFC32460023CDE945
:105A7000020101F064FCA060A068002804DDA068B9
:105A8000A0F58030A06003E0A06800F58030A06041
:105A90000020E0E538B50446CC4890F82400A04248
:105AA00001D1002038BD24B3C84890F8250010B9B2
:105AB0004FF0FF30F6E70020FEF74AFB0020FEF72C
:105AC0006FFCC249C88CFEF7DCFE00200090BF4985
:105AD000496808786B4601222321FEF79CF90121D1
